:020000040000fa
:080000000004040000000000f0
:020000040000fa
:100800002fe0200000ff270000018800000000000a
:100810000c000700009020000100200011000700dc
:10082000000020000000e000020032000000020092
:1008300000000000a4040200000000000040da00f4
:100840000000fe004440a900400120000000e0003c
:100850000300320000002000a00188004440a800ee
:100860000000060091018800800078000000eb0085
:1008700015003700e280400032a0b4009101ba00b8
:10088000e280400032a0b4009102ba00e280400051
:1008900032a0b4000002eb00472bde00f507b200e7
:1008a000602ce10004003a000059eb008301e900ec
:1008b000fdff3e00040037006128e1000100320026
:1008c0000082eb00040007001101ba000200e00002
:1008d000e8ff3a00000006003159ba008301e90040
:1008e0000c0032002159ba008301e90008003200ef
:1008f0000400e00003003a00e280400032a0b400af
:10090000f5ff370011d9ba008301e900faff3a0078
:100910008100e800e180400032a0b4000000060041
:020000040000fa
:0200000401f009
:04000000ffff0000fe
:020000040000fa
:0200000401f009
:04000400ffff0000fa
:020000040000fa
:0200000401f009
:04000800ffff0000f6
:020000040000fa
:0200000401f009
:04000c007bff000076
:020000040000fa
:0200000401f009
:04001000bdff000030
:020000040000fa
:0200000401f009
:040014007fff00006a
:020000040000fa
:0200000401f009
:04001800fdff0000e8
:020000040000fa
:0200000401f009
:0400200003000000d9
:020000040000fa
:0200000401f009
:0400240008000000d0
:020000040000fa
:0200000401f009
:0400280020000000b4
:020000040000fa
:0200000401f009
:04002c0010000000c0
:020000040000fa
:1000080008090000080900000809000008090000a4
:100018000809000008090000080900000809000094
:100028000809000008090000080900000809000084
:100038000809000008090000080900000809000074
:020000040000fa
:020000040000fa
:100920004f480000324e00004c540000202f0000c1
:1009300020310000312e0000303800002e3200003f
:0809400030310000300000001e
:020000040000fa
:100948002e00fa00313a800000e02f00008060009d
:10095800d103200001007000303a88004174200063
:100968009140780000ceb30000c060000004a000f1
:1009780044e7b70044c7bf00f043b20044e7b700fc
:10098800517420009140780080cfb30000c060000f
:100998000024a00045e7b7004567a900517420006e
:1009a80091407800f0c8b30000c0600045e7b70088
:1009b80045e7a90040a7a900e402a900e422a9008c
:1009c8000000000000000000e7c2bf0062406000b5
:1009d8000004e00001003200f501070042c7bf0033
:1009e8000042b2000004e000fcff3200e802a80068
:1009f80000c020000100200030079800410798003f
:100a0800be0090004e009000e501070050079800d6
:100a1800610798002e4890000004e00001003a00a9
:100a2800e30107001061a8008500a9009500a9004e
:100a38005e009000ee009000f20f200003002000fe
:100a480000027800810278000200780083007800b4
:100a580000016200018062006102b800541798002a
:100a6800651798005e109000ee109000c000dd0041
:100a78000000200050179800611798005e10900041
:100a8800ee1090006112b80054179800651798008e
:100a98005e119000ee1190000200700083807000db
:100aa800f20f200003002000820f5000838f5800af
:100ab800140032002e4890000003fb00cfb3de0084
:100ac80000002a000032b800e024200000b0b9007d
:100ad800050178000001410000002a0000b8b900b3
:100ae80000014100820278005407980065079800c9
:100af8006e009000700888005e0090006008880012
:100b080011e1a800400120004011880000002800e1
:100b180000118800004020001011880000003700f4
:100b28006e004700ce000700e8c2bf000080fb004f
:100b38000000d1000004a200614060006140600034
:100b4800614060006140600000414000812e20004b
:100b580091407800d0cfb30000c060000240700020
:100b6800e8e2b7006e4890000000fb0040179800cc
:100b7800ce119000e38f5100260032004e129000f3
:100b8800e30f520007003c00ce1290000500e00081
:100b9800ae0032004e109000e20f50000b00320001
:100ba800ac003700ce109000e88f50007a00320079
:100bb8004e119000e90f51003a003200ce1190001a
:100bc800e78f510050003200a20037007000470044
:100bd800a3000700700047000000e800a00007001d
:100be800700047000080e8009d0007000040eb000f
:100bf800305798000e0990009e0990000080200050
:100c0800b70007000160200000802000da0007001c
:100c1800c3ff3700740047009100070074004700c5
:100c28000000e8008e000700740047000080e8001c
:100c38008b0007000040eb00705798000000eb00a5
:100c480020079800080037002e00900080007800e8
:100c58000080200000804000810007002e009000e6
:100c68000000e80020079800ae009000f05f200028
:100c7800808f5000f4ff3400ae0890003e089000ca
:100c8800220424004d0107002e099000be0990009f
:100c980000802000d400070010c0b300c80007007f
:100ca8009fff370000002000f10f2000400f980040
:100cb800510f9800ce0890005e0890003801070098
:100cc800600f9800710f98007c00470041002000d9
:100cd800a900070020002000f10f2000400f980015
:100ce800510f9800ce0890005e0890002c01070074
:100cf800600f9800710f98007c00470041002000a9
:100d08009d00070086ff37000000eb0010079800e1
:100d18001d0037001e009000800078000080200031
:100d2800808040001e0090000000e8001007980036
:100d3800010078004a0007001e009000800078003b
:100d480000802000808040001e0090000000e80025
:100d58001007980001007800410007001e0090006d
:100d68008000780000802000808040001e009000f5
:100d78000000e8001007980001007800380007001c
:100d880010c0b3008e0007001e009000f70f50003f
:100d9800e0ff340062ff37000000eb00000f78002e
:100da80000002000810f20000017980011179800fc
:100db800210037009e00780000802000008040005d
:100dc800104078000004e00013003a009e00e8009c
:100dd80000802000008040001040780040679800a4
:100de8009e80e800008020000080400010407800cd
:100df800506798002e1090003e1190008e109000c1
:100e08001e1290008001780004007800e0000700be
:100e180000002400d30007001e027800630f420080
:100e28000e1090009e10900062004000e080480084
:100e38000017980011179800750120009e8f120066
:100e4800dcff3400da00070035ff3700d800070060
:100e580033ff37000040eb005900070030ff370030
:100e68000200fa00000f78000000370085c0bf00bc
:100e7800614060000004e000040032009e00780039
:100e88000040eb00804878001300370022c2bf0002
:100e9800644060000004e000f4ff3a0022c2bf0092
:100ea800624060000004e000020032002222a90033
:100eb800eeff370022c2bf00614060000004e0007e
:100ec800eaff320011e1a90030118000804078006b
:100ed8001e007800014878000080fa000000060033
:100ee8000c00fa0030079800420798005307980052
:100ef8000000eb00000f78001a003700ce009000c9
:100f08005e009000a60007001007980021079800cf
:100f1800ce4090003e009000014878003e009000ce
:100f28008000e8003e409000804878003e00900035
:100f38008080e8002e409000804878003e009000b5
:100f480063004000300798004e009000de009000db
:100f580062004000e0804800400798005107980070
:100f68001e0fe800f01f20009e0f1000e3ff340062
:100f78000080fa00000006000600fa00100798003a
:100f8800210798000000eb00000f780007003700e9
:100f98001e007800800078001e009000008040004d
:100fa80010407800060007001e0fe8002e00900091
:100fb8009e0f1000f6ff35000080fa0000000600c2
:100fc8000200fa00004f780023c2bf0061406000b1
:100fd8000004e000fcff32001e00fb002011880026
:100fe8000080fa00000006001600fa00000f9800c2
:100ff800120f9800230f98000000eb0010079800cc
:101008000000eb00000f78004d0037001e0078004c
:10101800800078000e0890000080400010407800a2
:10102800404798009e0078000e089000008040001d
:101038000000e80010407800504798009e007800b3
:101048000e089000008040000080e8001040780002
:10105800604798000040eb00704798001e00780039
:10106800630f40002e0090003e0190009e08900003
:101078002e0a9000800178000400780044000700e0
:101088001e089000ae0890007f0160006000b80064
:10109800030020000200700083807000820120009d
:1010a80003002000820f5000838f580008003a0088
:1010b8001e089000ae08900040079800510798005d
:1010c8002e009000be0090006007980071079800fd
:1010d8001e0090000000e000100032001e0090008a
:1010e8000000e80080007800f00320000080600025
:1010f8000000e00009003a006e0090007e019000b8
:10110800ce0090005e029000800178000400780014
:101118001f00070010002400120007001e0890009e
:10112800ae08900062004000e0804800100f980070
:10113800210f98001e0090000000e800100798009a
:101148009e009000f01f2000808f5000afff3400f9
:101158000080fa00000006009001880081007800f5
:1011680000000600003b880050052000303b880046
:10117800a00a2000303b880061e7a80000000000ba
:101188000000000061e7af00feff37000000060026
:10119800900188008308bb008288bb00000006001d
:1011a800900188001100ba009180ba000000060082
:1011b800020c040000000000000006003200f800e5
:1011c800023b8800900188008108bb005005200080
:1011d800303b8800a00a2000303b880061e7a80067
:1011e800000000000000000061e7af00feff3700cc
:0811f8003200f90000000600be
:020000040000fa
:1012000000080000020600000000000000000000ce
:020000040000fa
:041210000000fe00dc
:00000001FF
