:020000040000FA
:10000000000404000000000036D9000036D90000CA
:1000100036D9000036D9000036D9000036D90000A4
:1000200036D9000036D9000036D9000036D9000094
:1000300036D9000036D9000036D9000036D9000084
:1000400036D9000036D90000A8C2000036D9000019
:1000500036D9000014D1000036D9000036D900008E
:1000600036D9000036D9000036D9000036D9000054
:1000700036D9000036D9000036D9000036D9000044
:1000800036D9000036D9000036D9000036D9000034
:1000900036D9000036D9000036D9000036D9000024
:1000A00076D2000036D9000036D9000036D90000DB
:1000B00036D9000036D9000036D9000036D9000004
:1000C00036D9000036D9000036D9000036D90000F4
:1000D00036D9000036D9000036D9000036D90000E4
:1000E00036D9000036D9000036D9000036D90000D4
:1000F00036D9000036D9000036D9000036D90000C4
:1001000036D9000036D9000036D9000036D90000B3
:1001100036D9000036D90000EE9D000036D9000027
:1001200036D9000036D9000036D9000036D9000093
:1001300036D9000036D9000036D9000036D9000083
:1001400036D9000036D9000036D9000036D9000073
:1001500036D9000036D9000036D9000036D9000063
:1001600036D9000036D9000036D9000036D9000053
:1001700036D9000036D9000036D9000036D9000043
:1001800036D9000036D9000036D9000036D9000033
:1001900036D9000036D9000036D9000036D9000023
:1001A00036D9000036D9000036D9000036D9000013
:1001B00036D9000036D9000036D9000036D9000003
:1001C00036D9000036D9000036D9000036D90000F3
:1001D00036D9000036D9000036D9000036D90000E3
:1001E00036D9000036D9000036D9000036D90000D3
:1001F00036D9000036D9000036D9000036D90000C3
:10020000FFFFFF00FFFFFF0036D9000036D90000D6
:1002100036D9000036D9000036D9000036D90000A2
:1002200036D9000036D9000036D9000036D9000092
:1002300036D9000036D9000036D9000036D9000082
:1002400036D9000036D90000A8C2000036D9000017
:1002500036D9000014D1000036D9000036D900008C
:1002600036D9000036D9000036D9000036D9000052
:1002700036D9000036D9000036D9000036D9000042
:1002800036D9000036D9000036D9000036D9000032
:1002900036D9000036D9000036D9000036D9000022
:1002A00076D2000036D9000036D9000036D90000D9
:1002B00036D9000036D9000036D9000036D9000002
:1002C00036D9000036D9000036D9000036D90000F2
:1002D00036D9000036D9000036D9000036D90000E2
:1002E00036D9000036D9000036D9000036D90000D2
:1002F00036D9000036D9000036D9000036D90000C2
:1003000036D9000036D9000036D9000036D90000B1
:1003100036D9000036D90000EE9D000036D9000025
:1003200036D9000036D9000036D9000036D9000091
:1003300036D9000036D9000036D9000036D9000081
:1003400036D9000036D9000036D9000036D9000071
:1003500036D9000036D9000036D9000036D9000061
:100800004FE020000EFF27000E01880000000000CE
:100810000C00070000B820000100200011000700B4
:10082000000020000000E000020032000000020092
:100830000000000052070200000000000040DA0043
:100840000000FE004440A900400120000000E0003C
:100850000300320000002000A00188004440A800EE
:100860000000060091018800800078000000EB0085
:1008700015003700E280400032A0B4009101BA00B8
:10088000E280400032A0B4009102BA00E280400051
:1008900032A0B4000002EB00472BDE00F507B200E7
:1008A000602CE10004003A000059EB008301E900EC
:1008B000FDFF3E00040037006128E1000100320026
:1008C0000082EB00040007001101BA000200E00002
:1008D000E8FF3A00000006003159BA008301E90040
:1008E0000C0032002159BA008301E90008003200EF
:1008F0000400E00003003A00E280400032A0B400AF
:10090000F5FF370011D9BA008301E900FAFF3A0078
:100910008100E800E180400032A0B4000000060041
:100920004F48000032550000472000002F200000F3
:10093000313000002E300000372E00003230000031
:1009400031330000000000000800FA002007980082
:10095000310798003200F800910188009080BA00B9
:100960001000BA003200F900008FBE001E00BE0069
:100970000080FA00000006000800FA00008FBE00A8
:1009800022079800330798001E00BE002E01900039
:10099000BE0190003200F800910188000388BB007E
:1009A0000208BB003200F9000080FA0000000600D7
:1009B0000200FA00000F78001E007800003B88005B
:1009C0000500FC0050052000303B8800A00A2000F4
:1009D000303B880061E7A800000000000000000034
:1009E00061E7AF00FEFF37000080FA00000006005C
:1009F0000400FA00000F7800110798000700370084
:100A00001E007800104078001E0FE800FC0207006E
:100A10001E0090000000E900100798001E009000E2
:100A2000E00F5000F6FF3A000080FA0000000600D8
:100A30000400FA00000F7800110798000700370043
:100A4000E60207009E007800804878001E0FE8004C
:100A50001E0090000000E900100798001E009000A2
:100A6000E00F5000F6FF3A000080FA000000060098
:100A70000400FA00310020000E007800ECFF0700AF
:100A80000040EB00304798001E00BE000080FA00D6
:100A9000000006000800FA002007980031079800BF
:100AA0002E009000BE009000A7FF0700008FBE0040
:100AB000410020000E007800CDFF07000080FA0002
:100AC000000006000C00FA0040079800510798004B
:100AD00000802000100798000000EB00000F780055
:100AE0001E0037004E009000DE00900096FF0700C9
:100AF00020079800310798006E4090009E009000FB
:100B0000804878001E0090000000E8001007980060
:100B10005E4090009E009000804878001E0090008B
:100B20000000E800100798004E4090009E009000E2
:100B3000804878001E0090000000E8001007980030
:100B40004E009000DE00900062004000E08048000F
:100B500040079800510798001E0FE800F01F200082
:100B60009E007800808F5000DEFF36000080FA0083
:100B7000000006000A00FA003007980041079800BC
:100B80003E0090008000D100F01F20000080600037
:100B90006300B9008000780000802000008F4000D2
:100BA0001E00780010407800204798001E00E800E2
:100BB00010407800304798001E80E8001040780010
:100BC000404798000040EB00504798001E009000FE
:100BD000AE0090000001BE003E009000CE009000EC
:100BE00065FF07001E009000E10F400003003A007F
:100BF0004E409000E14F4000020032001000200003
:100C0000010037000000EB00004078000080FA008F
:100C1000000006000800FA0020079800310798003D
:100C20000040EB00204798000000EB00000F780028
:100C30000C0037001E0078006101B8002E00900003
:100C4000BE0090000200400083804800C9FF0700FA
:100C5000E04F50000200320010C0B300204798005F
:100C60001E8FE800F00720009E007800808F500063
:100C7000F0FF36002E409000E04F50000700320099
:100C80002E009000BE00900078004000E0804800F8
:100C9000B8FF07001000240045FF07000080FA009D
:100CA000000006000C00FA00300798004107980089
:100CB000520798003E009000CE00900022FF0700EF
:100CC0001007980021079800DE00900000802000A7
:100CD000008F40002E4090009E00780080487800F1
:100CE0001E0FE8003E4090009E007800804878008B
:100CF0001E0FE8004E4090009E007800804878006B
:100D00000080FA00000006000600FA0010079800B4
:100D1000210798001E009000AE009000E00F5000E8
:100D2000E08F580007003A000001EB006000B800B7
:100D3000DCFF07003200200020002000010020001E
:100D4000D8FF07006011B8001E009000AE009000B0
:100D500009FF07002004240015FF07000000EB0036
:100D6000000F7800090037001E0078006101B8000C
:100D70001E009000AE0090000200400083804800FA
:100D8000A4FF0700000820001E0F4000F03F2000D5
:100D90009E007800808F5000F3FF36000080FA003C
:100DA000000006000200FA000000EB00000F7800CF
:100DB00008003700008020001E00400031002000A5
:100DC0001BFF070010C0B3000D0207001E007800D3
:100DD000630F40001E007800F70F5000F5FF36004B
:100DE0000080FA00000006000A00FA00000020005F
:100DF000810F200010079800210798006000B800BC
:100E000030079800410798000000EB00000F7800C1
:100E10001F003700008020001E00400010407800B6
:100E2000E04F500012003A009E00E80000802000D1
:100E30000080400010407800604798009E80E800E5
:100E4000008020000080400010407800704798002B
:100E50003E009000CE0090000001BE001E009000F9
:100E6000AE009000C4FE070000002400D0FE070082
:100E70001E009000AE00900062004000E08048003C
:100E800010079800210798001E007800630F4000AB
:100E90001E007800F70F5000DEFF36000080FA00D9
:100EA000000006000600FA00790107000004A20015
:100EB000E04F500002003200020C0400000000006D
:100EC00000C02000010020009FFE0700004F7800B6
:100ED0001E407800E04F500002003A00020C04006F
:100EE000000000001E407800E4010700D001070068
:100EF000D8010700E04F500002003200020C04004D
:100F0000000000009B0107000004A200E04F500019
:100F1000F7FF3A00B1010700004F78008C0107008D
:100F20009E4078000180FB00CF80DE009200200010
:100F300003002000820F5000838F580035003E00D0
:100F40000060010030003700320037000700370032
:100F50000C0037002F0037002E0037002D0037001F
:100F600023003700240037001A003700C0FE0700B6
:100F7000D4FE070001602000008020009CFE0700D6
:100F800027003700BAFE07001007980021079800D5
:100F90000160200000802000A5FE07009E00900058
:100FA000F03F200000806000E00F500006003A0093
:100FB0001E009000AE00900053FF070010C0B30069
:100FC0008F010700020037000040EB008C01070092
:100FD0001300370000002000F10F2000ADFE0700D5
:100FE00020002000F10F2000AAFE07000C003700AF
:100FF0006CFF07000A0037007BFF0700020C0400AB
:101000000000000006003700020C04000000000091
:10101000030037000040EB007901070000000000EA
:10102000BCFF37000200FA00000F78009E00780035
:1010300062806000E00F500002003200D6E2A9009A
:1010400001003700D6E2A8001E00780061006000B1
:1010500000407800E04F500002003200D6C2A900E4
:1010600001003700D6C2A8000080FA000000060088
:101070000200FA00000F78001E007800E00F500018
:101080000D0032001E007800E6FF07000400090092
:1010900000000000D662A800130009000000000054
:1010A000D11680000008200000806000E00F500092
:1010B000FBFF3A00D662A9000080FA00000006009B
:1010C0000200FA00000F78000080EB00C0168800D4
:1010D000D682A900D6A2A8009E0078006280600097
:1010E000E3FF07009E00780061806000E0FF0700DA
:1010F0000080FA00000006000200FA00004F7800AD
:10110000D6A2A9009E4078000180FB00E01688006E
:101110000000EB00C0168800040009000000000079
:10112000D662A8001300090000000000D662A900E2
:1011300010000900000000000080FA000000060016
:101140000400FA00000F7800214798001E00780084
:10115000DBFF07001E007800B2FF07002E40900062
:10116000E5FF07000080FA00000006000200FA0018
:10117000004F7800F0C3B3009E40780080CF50004D
:1011800002003E0020002000010037001000200077
:101190000080FA00000006000200FA00004F78000C
:1011A00080CBB3001E4070008040780030002000EB
:1011B000E3FF07000080FA00000006000200FA00CA
:1011C000881F7800004F7800F0C3B3009E40600095
:1011D00000C4B30000C470001E407800E3FF0700A5
:1011E00088407800D6FF07001E40780002EEB70066
:1011F0004F0478000080FA00000006000200FA00A8
:10120000004F7800114798009E40780067C060004A
:10121000E1FF07001E4090000074A100E7FF0700F7
:101220000080FA00000006000200FA00004F78007B
:1012300000CCB3001E4070008040780030002000D9
:10124000BFFF07000080FA00000006000200FA005D
:10125000004F780002CEBF00C4FF070098FF0700D0
:10126000D682A8001E407800A3FF070002CEBF0070
:101270000040E80002EEB70002CEBF000074A100FB
:1012800002EEB70002CEBF00E04F50000500320072
:1012900021E020009140780000C4B30080CF5000CE
:1012A00002003A0002CEBF00C4FF07000080FA002F
:1012B000000006000400FA00204798000040EB0000
:1012C000D9FF07000F0037008040EB002E40900050
:1012D000CAFF07000040EB00004F78000300370012
:1012E0000040EB00D9FF07001E4FE8001E407800C9
:1012F000E04F5000FAFF3D002E4090000040E80013
:10130000204798002E409000E74F5000EEFF360037
:101310008040EB000040EB00B8FF07000080FA00BF
:10132000000006000200FA00004F78001E4078001E
:10133000E04F500002003200F0C3B300010037005C
:10134000E0C3B30080407800300020007CFF07003D
:101350000080FA00000006000200FA00004F78004A
:101360001E407800E04F500002003200E3A2A800C7
:1013700001003700E3A2A9000080FA000000060087
:101380000000FA00D662A900E3A2A900511980006A
:1013900000F02F0000807000501988009116800026
:1013A00070F02F000080600090168800F116800019
:1013B000F0FF2D0000806000F01688000040EB0078
:1013C000BCFF070010C0B300D6FF070010C0B30079
:1013D000E1FF07000080FA00000006000600FA00A6
:1013E00010079800414798001E00900000407800C8
:1013F000B1C3B30081FF070000C0EB0093FF0700FB
:101400000040EB0091FF07000000EB00000F7800A8
:10141000030037004E4090008CFF07001E0FE800CD
:101420001E007800E50F5000FAFF36000040EB0088
:1014300086FF070000C0EB0084FF07000080FA0071
:10144000000006000200FA000040EB0000EEB700CA
:10145000CBFF07000000EB00000F7800070037000B
:10146000F1C0B3001E007800DCFF07001E00E8009A
:1014700001CFB300D9FF07001E8FE8001E007800DF
:10148000E70F5000F6FF36000080FA00000006006B
:101490000000FA003117800000202000008060006A
:1014A000E00F5000020032000040EB002600370041
:1014B000313A800000E02F0080806000D0032000DF
:1014C00000807000303A8800213A800000FE2F0032
:1014D000008060000000A000203A8800213A8000CF
:1014E000F0F32F0000806000203A8800213A80004D
:1014F000F08F2F008080600000402000008070008E
:10150000203A88004567A900213A8000F0FF2800B2
:1015100000806000203A880045E7A90040A7A900A4
:10152000113A80000002200000806000E00F5000AF
:10153000FBFF3200E402A900E422A900E802A800AF
:10154000C0FF070010C0B3000080FA0000000600D2
:101550000000FA00E822AA0000CEBF0000C0E900A7
:1015600000EEB70000CEBF002FFF07000080FA009A
:10157000000006000200FA0010118000000F780041
:101580009E00780062806000E00F5000030032008F
:101590002222A9000040EB000E0037009E007800D8
:1015A00064806000E00F5000020032000040EB0059
:1015B000080037001E0078006100600000407800DD
:1015C000E04F50000200320010C0B30001003700AD
:1015D0000040EB000080FA00000006000000FA0066
:1015E000E4FF07000004A200E04F5000FCFF3A00B7
:1015F00030118000004078000080FA0000000600F2
:101600000200FA00004F7800111180000010200045
:1016100000806000E00F5000FBFF32009E40780029
:101620000180FB00201188000080FA000000060005
:101630000000FA004001200040118800000028004E
:101640000011880000402000101188000080FA007E
:10165000000006000000FA002104800000102000B5
:10166000008060008000EA00008070004F00DE0013
:10167000004078000080FA00000006000600FA0032
:10168000404798008500A9009500A9004E409000B1
:10169000E14F4000180032001061A8004E40900059
:1016A0000080FB000100200002002A000289B9002E
:1016B00002017800E32420000382B900840178004D
:1016C0000301410003002A000300B80001014100AA
:1016D00082007800008FBE001E00BE004008DE00C1
:1016E0000100200000007800700888001E007800CB
:1016F0006008880011E1A8000080FA0000000600E0
:10170000000800000006000000000000000E0000BD
:101710000200000000000000020E000002000000B5
:1017200000000000000000000040DA000000FE00A1
:10173000FFFFFF00FFFFFF00FFFFFF00FFFFFF00B5
:10174000FFFFFF00FFFFFF00FFFFFF00FFFFFF00A5
:10175000FFFFFF00FFFFFF00FFFFFF00FFFFFF0095
:10176000FFFFFF00FFFFFF00FFFFFF00FFFFFF0085
:10177000FFFFFF00FFFFFF00FFFFFF00FFFFFF0075
:10178000FFFFFF00FFFFFF00FFFFFF00FFFFFF0065
:10179000FFFFFF00FFFFFF00FFFFFF00FFFFFF0055
:1017A000FFFFFF00FFFFFF00FFFFFF00FFFFFF0045
:1017B000FFFFFF00FFFFFF00FFFFFF00FFFFFF0035
:1017C000FFFFFF00FFFFFF00FFFFFF00FFFFFF0025
:1017D000FFFFFF00FFFFFF00FFFFFF00FFFFFF0015
:1017E000FFFFFF00FFFFFF00FFFFFF00FFFFFF0005
:1017F000FFFFFF00FFFFFF00FFFFFF00FFFFFF00F5
:101800000A0000008F0D2200005F27000001880001
:10181000000000000C000700804B2C00010020009D
:1018200011000700000020000000E000020032006C
:101830000000020000000000B46D02000000000083
:101840000040DA000000FE004440A900807F220032
:101850000000E0000300320000002000A00188002A
:101860004440A80000000600910188008000780034
:101870000000EB0015003700E280400032A0B40009
:101880009101BA00E280400032A0B4009102BA0097
:10189000E280400032A0B4000002EB00472BDE00E3
:1018A000F507B200602CE10004003A000059EB009B
:1018B0008301E900FDFF3E00040037006128E100DC
:1018C000010032000082EB00040007001101BA00A1
:1018D0000200E000E8FF3A00000006003159BA00BB
:1018E0008301E9000C0032002159BA008301E900AC
:1018F000080032000400E00003003A00E2804000EB
:1019000032A0B400F5FF370011D9BA008301E90015
:10191000FAFF3A008100E800E180400032A0B40004
:1019200000000600A20C040000000000CC0C040023
:10193000000000001E16040000000000000004006B
:1019400000000000889FBE0080047800010078003D
:1019500002047800890178001100200025000700AA
:10196000880F5000010032008004EB00090078006D
:101970004F04BE00000006000000FA004FB99700B7
:10198000E881570081F3270020CA20006E0007007D
:101990000080FA0000000600881F7800020478002A
:1019A00022010700080040004F04780000000600F4
:1019B0000000FA00881F7800000478003FB9970003
:1019C000EA81570080007800C0CC20005E0007004C
:1019D000800078000000E000020035000040EB00CD
:1019E00000F47800010078004F0478000080FA00CD
:1019F00000000600889FBE008A9FBE008C9FBE002C
:101A00008E1F780081067800830478000006780035
:101A10000288B900000778000000E00002003A00E8
:101A200000017800420037000D00E0004000320065
:101A300000057800C900900069009000808F500078
:101A40000400390009007800FF0007000000E000F2
:101A500029003500004020001900600003003A0012
:101A60000A047800800578000B0037000A0178002E
:101A7000A10020000C0078003601070080057800E6
:101A80000000E00002003A000A047800020037007B
:101A90000C0050000004E800C901900069009000AB
:101AA00003005000880F500002003100000478004D
:101AB0008005EB00080178008C00780003007800B6
:101AC000DA000700080646000805550049009000A6
:101AD00000004400C00498000B00E0000400320045
:101AE00009007800250107000000E00002003A002C
:101AF0000A00E000CFFF3A000080200019006000DB
:101B000002003200090078001C01070000C020001C
:101B1000190060000200320049009000E0049800C3
:101B20000A005700110009000D80D800000178005C
:101B3000020078004F0778004F06BE004F05BE0038
:101B40004F04BE00000006006200FA00889FBE003D
:101B50008A9FBE000004BE00020578008300780062
:101B600060F92F000F0040004101070088979F0097
:101B700099979F000000EB00A09F9F009A45780076
:101B80000B80FB000000EA00CF04DE0050C2B3006F
:101B900080CF5500020032000904780001003700B0
:101BA0000904E9000800E0000B0034001F909700D2
:101BB000080178008A0078008F91970003000100E7
:101BC00090979F000000E000930032002F9897004C
:101BD00000004400A09F9F000905450050C2B300CB
:101BE00080CF5500040032000B04E000E3FF3A0010
:101BF0002F989700890037000000EB00809F9F001E
:101C0000F0979F00E0979F00D0979F00C0979F009C
:101C1000B0979F00C09F9F0009003700E0E92100B6
:101C2000008050000000400021E92100E100780020
:101C30004F98970001007000C09F9F000A05E800C0
:101C40001A4478008800FB00E0E921000D0107003C
:101C5000800078000000E000F0FF3A00A0C2B3006E
:101C6000804F54000E003A00BF8897000180E900C1
:101C7000B08F9F0010007800B09F9F000000E00030
:101C800005003D000000EA00B09F9F004F989700BC
:101C90000020A000C09F9F000A05E8001000370048
:101CA000B19F9F0009003700BF989700F0FF270001
:101CB000808F5000040032006A08B9000000410023
:101CC00003004000B09F9F000A05E8001A01FB00D6
:101CD00003FD2F0003004100E90F5000F2FF360022
:101CE000E0C2B3009A4F1000040032000080EB0005
:101CF000909F9F008A0478001C0037008A04E80047
:101D0000A0C2B300994F100007003A00BF889700A7
:101D10000180E900B08F9F0010007800909F9F0025
:101D20008A84E800110037000000EB00909F9F00BC
:101D3000090037009F989700F0FF2700808F500020
:101D4000040032006A08B9000000410003004000AE
:101D5000909F9F008904E8001901FB0003FD2F00FC
:101D600003004100E90F5000F2FF360019447800EB
:101D70008800FB00C0EB2100C20007000000E0006B
:101D800002003A0000447800010037008904E800AE
:101D9000A87F9F0080C6B300804F540004003A0023
:101DA000994F14000A003A006640500006003700C0
:101DB000C0C6B300804F540005003A00994F14008C
:101DC00003003A0065404000A07F9F008904E800BE
:101DD0000905E800C8FB2F000F04440060F92F003C
:101DE0000F0040008085E8008801780019417800E4
:101DF000800078000B007800AB0007000000E000D6
:101E000005003A00880078000B00780023020700E4
:101E10000000E00059FF3D000080EB004F05BE00D0
:101E20004F04BE000080FA00000006008001EB00B5
:101E30000200370061F079008301E800828F5100D1
:101E4000FCFF3A0000000600889FBE0000047800F6
:101E5000C0019000600090008000EB00808F510076
:101E600039003900180178002000290000006100C5
:101E7000E20F500007003200002020000200E000C6
:101E80000100350000202400000C71008080EB0070
:101E90002D0037000100260001006100810F500075
:101EA00008003A0038009000808F5100050039008A
:101EB00008007800310007008080EB000000E0009F
:101EC00021003A0000C020001800600017003A000E
:101ED000A80490006002200008004000808F540099
:101EE00012003A0000202000B602070080007800AF
:101EF000200498000000E00005003A002904980042
:101F0000490498000900E8003004980006003700F2
:101F10001860A000400498000020B0003004980031
:101F2000410C9800510C9800F8020700280090001E
:101F300050049800380090006004980000002600CB
:101F4000180C70008000EB00010078004F04BE0008
:101F5000000006008001EB00040037008301E80068
:101F600090CF1000040032000000E800828F510082
:101F7000FAFF3A000000EB0000000600889FBE0058
:101F8000000478000000E0000E003A0080047800B1
:101F900008F02700180078000000E000040032007C
:101FA000F6FF07000000E00001003D008084EB0028
:101FB0000884E80000F12700800F54002900320057
:101FC000F4FF3700000022001800600024003200F7
:101FD000A804900008003700090150003840900024
:101FE0000000FB0089007800720907000000E00093
:101FF000130034008084440048009000808F540017
:10200000F5FF39002800900040049800180178007E
:1020100000C020000000610002003200A800900013
:1020200001003700B80090000000240000006100AB
:102030000A003200610498008004EB0009003700B8
:10204000280090004004980060049800500C98000C
:102050001890A0008084EB0002003700510C98001B
:1020600080047800090078004F04BE0000000600DC
:102070000200FA00F1BF9F00010878000080FA001A
:1020800000000600040037000204E00001003A00EE
:10209000000005000000E80010417800814F510069
:1020A000F9FF3A0000000600889FBE008A1F7800F2
:1020B000000478000102780082447800030578006B
:1020C00070C6B300804F510021003C0000C0E90001
:1020D000804F5100DE003D0072405000804F5100A3
:1020E0004B0132000D003C006C405000804F51000D
:1020F0005E013C0000C0E900804F5100D4003D006B
:1021000050C2B300804F5100550132007C40400066
:10211000804F510055013A00CD00370010C6B30082
:10212000804F5100CA00320004003C00694050005A
:10213000804F51004D013A007200370030C6B300A5
:10214000804F5100180032000040E80009003700BD
:1021500000C7B300804F51001E01320008003C0050
:1021600000C0E900804F5100E400320065003C00EF
:102170006540500080CF54003C013A000F0037000A
:1021800050C7B300804F51005E00320063404000F2
:10219000804F51005B00320065405000804F51007D
:1021A00032013A001A0137009180E900010A7800F3
:1021B000780090009171780032013700A86090009B
:1021C000C0C6B30080CF50000A003A0094007800E7
:1021D00064805000000A78001000BE004F89DE00C5
:1021E000CF91DE000002BE00020378008203780077
:1021F0001300370010C7B30080CF50000300320037
:10220000A0C6B30080CF500006003A0094007800CA
:1022100068805000000A78003002BE002003BE0033
:10222000070037001480E900000A780010007800E9
:1022300000027800CFA2DE00050378008603780054
:10224000049CBE000694BE00A860900080C6B30047
:1022500080CF50000E00320020C6B30080CF500067
:1022600005003A000400FB00CF80DE000101780089
:10227000820178000A00370040C7B30080CF5000C9
:10228000030032006640400080CF500006003A0054
:1022900004007800CF80DE00010178008201780020
:1022A000009CBE000294BE003800BE002801BE00A3
:1022B000E00F5000E08F5800E00F5900E08F590008
:1022C00003003D0078009000D1C2B3000A0037003F
:1022D000081090000018A30003003200780090005E
:1022E000B1C2B300040037000008A300530032005D
:1022F0007800900001C2B300017578000000E8008A
:102300004D003700A8609000C0C6B30080CF5000D9
:1023100006003A009400780064805000000A7800BB
:102320001002BE006033B8001300370010C7B300BE
:1023300080CF500003003200A0C6B30080CF500011
:1023400006003A009400780068805000000A780087
:102350003002BE002003BE00070037001480E900F1
:10236000000A7800100078000002780005002000C4
:102370000600200007002000049CBE000694BE005A
:10238000A860900080C6B30080CF50000E003200DD
:1023900020C6B30080CF500005003A000480FB0047
:1023A0000100200002002000030020000A00370086
:1023B00040C7B30080CF50000300320066404000A9
:1023C00080CF500006003A00040078000100200091
:1023D0000200200003002000009CBE000294BE000A
:1023E000081090000038A300140032003800BE002E
:1023F0002801BE00E00F5000E08F5800E00F5900A8
:10240000E08F59000D00320080C7B30080CF540028
:102410000300320080C5B30080CF540007003A00AB
:102420007800900001C3B300017578008000E800D7
:1024300009F578000080E8007004980078009000AA
:102440000000450060049800894078006D00370066
:10245000A8609000C0C4B30080CF500006003A00CE
:102460009400780068805000000A78005001BE0097
:102470004000BE00050037009400780064805000E2
:10248000000A78001000BE00560A0700009CBE003B
:102490000294BE00380090000000E00003003D0000
:1024A00078009000D1C2B3000A00370008109000F5
:1024B0000018A3000300320078009000B1C2B300FE
:1024C000040037000008A3000500320078009000E7
:1024D00001C2B300017578000000E80070049800A4
:1024E0007800900000004500600498008940780062
:1024F00008007800DD01070064003700A860900044
:10250000C0C6B30080CF5000250032000A003C0056
:102510006440500080CF50002800320000C0E80026
:1025200080CF5000140032006840500080CF50002F
:1025300022003A000A00370040C7B30080CF5000A5
:102540001E0032006640400080CF50001B00320069
:102550006940500080CF500018003A000600370054
:102560001480E900000A780010007800485C9000B0
:1025700008487800450037001480E900000A780018
:102580001002780068089000CF80DE00010178001A
:1025900082017800009ABE000292BE003B00370024
:1025A0001480E900000A78001001780068089000A3
:1025B000CF80DE000089BE00340037001480E900BF
:1025C000000A780010007800680C90000808780075
:1025D0002E0037001180E900800878001000780094
:1025E000CF80DE000101780082017800009CBE00EF
:1025F0000294BE007800900000004500600498003E
:1026000081C7B30008007800C10307001F0037002E
:102610001480E900000A7800100078006004980037
:10262000580990000200E00002003D004505070047
:10263000090037008000EB0046FE070080007800AC
:102640000000E000030032006800900000805000AD
:102650000100370058089000100C98000B0037005C
:10266000780090000275780006003700780090002E
:10267000800045000904E00001003A0059C2B3009F
:10268000894878000000E800700498000000EB0022
:102690004F0578004F04BE00000006000400FA0059
:1026A000889FBE008A9FBE008C1F780000047800BF
:1026B0000106780070089000F800900001005000BA
:1026C0008808900001005000980890000100500018
:1026D000A808900001005000B808900001005000C8
:1026E000C8089000810550000002220090BF9F00A2
:1026F00000032300A0BF9F00081090000028A30043
:1027000018003A000B00E000160034008B0478003B
:1027100009057800E28F5400020036002A002000EC
:10272000020037000900E0000B0034005800900060
:10273000C80190000A017800EE80570003000100F4
:10274000500498000000E0009600320068089000F5
:1027500000004500600C98008A8454004240A900A3
:10276000EBFF3C00780190000200E0000B00340019
:1027700058009000C80190008C0078000300010010
:10278000500498000000E0008600320068089000C5
:10279000F800900001004000600C9800880C900048
:1027A0000900E0001500340009057800E28F5400AC
:1027B000020036002A002000020037000900E00075
:1027C0000B00340058009000C80190000A01780006
:1027D000EC80570003000100500498000000E00066
:1027E000700032006808900000004500600C9800FE
:1027F0008A8454004240A900EBFF3C001809900075
:102800000200E0000B003400E80090005800900047
:10281000C801900003000100500498000000E0008F
:1028200060003200680890009808900001004000A5
:10283000600C9800A80C90000900E000150034001E
:1028400009057800E28F5400020036002A002000BB
:10285000020037000900E0000B003400580090002F
:10286000C80190000A017800EC80570003000100C5
:10287000500498000000E0004A0032006808900010
:1028800000004500600C98008A8454004240A90072
:10289000EBFF3C00380990000200E0000D0034001E
:1028A000E8009000180890008080400058009000D8
:1028B000C801900003000100500498000000E000EF
:1028C0003800320068089000B8089000010040000D
:1028D000600C9800C80C90000900E000150034005E
:1028E00009057800E28F5400020036002A0020001B
:1028F000020037000900E0000B003400580090008F
:10290000C80190000A017800EC8057000300010024
:10291000500498000000E000220032006808900097
:1029200000004500600C98008A8454004240A900D1
:10293000EBFF3C00081090000028A3001B003200B1
:102940000B00E000190034008B04780009057800C2
:10295000E28F5400020036002A00200002003700F7
:102960000900E0000B00340058009000C8019000FE
:102970000A017800EE80570003000100500498001F
:102980000000E000070032006808900000004500E9
:10299000600C98008A8454004240A900030034006F
:1029A000EAFF37000080EB00010037000000EB0079
:1029B0004F0678004F05BE004F04BE000080FA00AD
:1029C00000000600889FBE00E30440000900A1004B
:1029D000808F54004A003600E38F540001003E000F
:1029E0004900200032F680000200E00002003200C0
:1029F000820078000C00370081EC210003003700D2
:102A0000908F5400230036008080E8001100780089
:102A10000000E000FAFF3A000F003700908F5400EA
:102A20001C0036008080E800110078000000E00003
:102A3000FAFF3A001201780081EC21000300370010
:102A4000908F5400130036008080E8001100780059
:102A5000820F5000FAFF3A0028F68000890F5400D8
:102A60000100310009047800080078003C040700E8
:102A70000000E00004003A00890F540020003200FA
:102A80000804D100F5FF3700081878003B04070060
:102A9000D4FF370011017800920178006480510062
:102AA000890F500003003100120090008008780068
:102AB000070037000900410080087800920190006B
:102AC000130098001100780012881400090978009A
:102AD000910078000100E000050032001100900034
:102AE0000000E000020032000180E8000100370031
:102AF0000000EB0030F688000280E800010037009B
:102B00000000EB004F04BE0000000600881F7800A4
:102B100088ED21001804E00004003A00E061210083
:102B20004A04070020C0B300004C78004F0478002E
:102B300000000600889FBE00000478000FFD07001B
:102B400080047800000420001800600002003200B9
:102B500028009000090407000000EB002004980002
:102B6000384090000004E000050035000000FB0044
:102B7000C40607000000E000010032008084EB0082
:102B8000181090000000E00008003200C6060700A0
:102B90000000E000010032008084EB00181090007B
:102BA000F60307000000EB00101498000008200056
:102BB00018006000100032000000EB0001F0270058
:102BC000910F1400070032000000E8008180E80047
:102BD000E80F5000FAFF3A0008007800E70307000A
:102BE00013003700000140008000EB0000F02700D8
:102BF00001307900F8FF3700000C780000C0EB00CE
:102C00003044980060022000080040002004980032
:102C10004004980050049800400C9800600498000C
:102C2000500C98007004980076004400000C980046
:102C3000090078004F04BE0000000600881F7800DD
:102C4000E8F02700180078000000E00001003200E2
:102C5000B8FF07000884E900E0EF2700800F540068
:102C6000F8FF3A004F047800000006008F04B0001F
:102C7000889FBE008A9FBE008C9FBE008E1F78007A
:102C8000F0B79F0081F79F005001BE004000BE00DA
:102C9000F0979F00819F9F00929F9F00A39F9F009E
:102CA00010C6B3000FF19700804F5100160032009C
:102CB00010C4B300804F510013003200FFB19700E1
:102CC000530890000000E00003003D006000200079
:102CD000D00998000C0037000000E0000A003A001C
:102CE00070C6B3000FF29700804F5200030032000D
:102CF00070C4B300804F520003003A00100020005F
:102D0000FFB29700D00A9800FFB09700C0FA2F00DA
:102D10000F004000DA03070080017800E20F500046
:102D200015003A0030002000FFB09700900898008E
:102D300010C6B3000FF19700804F51000A00320017
:102D400064404000804F5100070032000040E8001E
:102D5000804F510004003200A1E221000040E80051
:102D6000804F510001003A00E1E22100FFB19700DD
:102D700063009000160037000000E00018003400E7
:102D8000300020007FB29700100A980010C6B300F0
:102D90008FF2970080CF52000A003200644040005A
:102DA00080CF5200070032000040E80080CF520080
:102DB0000400320021E321000040E80080CF5200EF
:102DC00001003A0061E321007FB1970062009000AA
:102DD000315878003158780011487800C601370022
:102DE00014C6B3008FF2970084CF52000300320064
:102DF00010C4B30080CF520013003A007FB0970098
:102E0000600190008200780000C3B3008058780011
:102E1000FFB29700E102980080C7B3008FF29700DD
:102E200084CF52000100320080C5B3008048780092
:102E30000280E800FFB09700E00098007100900069
:102E40000080E800F00098000300E00005003A0070
:102E5000E3979F0064FB2F000F01420003077800F7
:102E6000A0013700A5E32100E5B79F0010C6B3001D
:102E70008FF0970080CF50000500320010C4B300DF
:102E800080CF5000A7003A00B2E42100E2B79F00D3
:102E9000FFB19700530890001E0220000000E000E0
:102EA000010035000007E8000E02E800D4B79F00DB
:102EB0006022B8006033B8007F9097008F98970029
:102EC0001F999700AF99970007070700FFB0970079
:102ED0003102BE002103BE000000E00004003D00FE
:102EE0000400BE000601BE0003F0A200020037008D
:102EF0000400BE000601BE00F0979F00819F9F0066
:102F0000929F9F00A39F9F006F91970064015100C3
:102F1000E2979F00C3FA2F008F8141006A80410031
:102F20000048EB006B824100C4B79F0031003700BE
:102F3000C201200003002000E5FA2F000F804200AC
:102F40007B0307007F9497008F9C97001F9D97003D
:102F5000AF9D97000800BE000A01BE00BD0B070030
:102F60000006BE005FB1970067015100D2B79F0015
:102F70004240A9000A003400E60707000002BE0034
:102F80000203BE000800BE000A01BE00DB06070007
:102F9000F0979F00819F9F00929F9F00A39F9F009B
:102FA000CFB1970067804100710020000500370015
:102FB0006F6066004C6ADD004466DE000C0672003D
:102FC000C4EEDE00E00F5600E08F5E000500340026
:102FD0008100E900E18F4000F5FF3A000100370071
:102FE0000060EB008100E900FDFF3B00670040004E
:102FF000C0B79F00DFB297000500E0000900340071
:103000006022B8006033B8007F9097008F989700D7
:103010001F999700AF999700BA0B07000000E000D6
:10302000C3FF3C0060FB2F008F0040004FB19700B2
:10303000010051000000E9008E0F500001003D002A
:10304000000778000E00E00003003D0073FB2F0036
:103050000F8141002C003700800F570005003D0014
:103060000E80400010409000F3C0B300E74F5000C6
:1030700001003C008041EB00C4FA2F000F02420027
:103080000E0042006A0040008E0078000100370008
:103090000000E9008100E90010417800834F5100F1
:1030A000FBFF32000107E800EFCF510001003A00BA
:1030B0000248E8000100E0000300350075FB2F0026
:1030C0000F814200060037000E07E8006F9097005E
:1030D00064004000E0979F0061FB2F000F814000DB
:1030E0008E0041008E017800030037001100FB00C4
:1030F0006FB29700E44878008301E9008100E9009D
:103100000300E000F9FF3D00FFB297005508900072
:103110000000E000F3003D000E00E900D00A980036
:10312000F00037007F9497008F9C97001F9D9700B9
:10313000AF9D97006022B8006033B8000800BE0061
:103140000A01BE00680607000000E00005003D001F
:103150000BF0A200F8979F00899F9F009A9F9F0005
:10316000AB9F9F006F909700725927000280B900B3
:10317000026A28001300200082080700E4005000C3
:10318000E1979F0015003B00E3801000C0FF2F0077
:10319000008460000800EA00E0979F007F9097009D
:1031A0008F9897001F999700AF99970089F827008B
:1031B000070037000808A300030032003902BE00F0
:1031C0002903BE00560707000884D100E8844400A4
:1031D0000800E000F7FF3C001B0037000100E000A2
:1031E0001D003400C0FF2F0000806000E0979F00AA
:1031F000000478006000B8000200200003FF2300F4
:1032000089F82700070037000808A30003003200F0
:103210003902BE002903BE00410707000884D1001F
:10322000E88444000800E000F7FF3C000002BE0014
:103230000203BE007F9097008F9897001F99970018
:10324000AF9997002F060700F0979F00819F9F007E
:10325000929F9F00A39F9F00FFB09700510990008D
:1032600060C6B3008FF1970080CF51000400320098
:103270006100200060C4B30080CF510002003A001A
:103280006F929700EA00420001074100F30F5700D8
:10329000010034003E01200000C3B300E0779F002E
:1032A00075FB2F008F824200B5B79F0033003700B7
:1032B0000800BE000A01BE00E60A07000006BE00C4
:1032C000680757004240A9000E00340011070700AC
:1032D0000002BE000203BE000800BE000A01BE00DC
:1032E000060607006022B80046782D0077192400F2
:1032F0000B070700F0979F00819F9F00929F9F0000
:10330000A39F9F003FB09700680440008900200001
:103310000D003700A4002000050020000C01BE00B5
:10332000E0FD2F000F004000FA0207007FA8970081
:103330008FB097001FB19700AFB1970004C3B300DF
:10334000046441000006BE00E00F5600E08F5E00FE
:10335000060034008904E900E18F4400EDFF3A00E3
:103360000200370000C3B300006478008904E9005C
:10337000FCFF3B0068044400B8B79F000E00E0006B
:103380000B0034007F9497008F9C97001F9D97003F
:10339000AF9D97006022B8006033B8000800BE00FF
:1033A0000A01BE00D70A07000000E000C0FF3C0091
:1033B000C5FA2F008F8242006A804200BFB097009A
:1033C000008050008001E9006F919700E700410004
:1033D0006B814200010037000201E80000C3B30026
:1033E000924F1000FCFF320074FB2F000F004200D0
:1033F0008080400082805000008041000202500026
:10340000E1979F00FFB29700D509900060C6B30016
:103410008FF2970080CF52000300320060C4B300E7
:1034200080CF520002003A008100E8000A00370015
:1034300050C6B3008FF0970080CF500005003200D7
:103440008000EB0050C4B3008FF2970080CF520091
:1034500001003A0011002000018741008E0F520048
:1034600001003D00040778000E00E0001D0035005B
:10347000840F570005003D00E2407F0095C3B30074
:1034800040C3B30080CF500001003C0005C3B3002F
:103490000E0041008000E9008E0178000100370035
:1034A0008100E9008301E90011427800854F520054
:1034B000FBFF32000307E80090C3B30080CF520047
:1034C00001003A008448E8000300E00005003D00E8
:1034D0000201E9000E07E8006F9097000000E80085
:1034E000E0979F006F9297008E0178008FF0970011
:1034F0007FB09700A40207004F0778004F06BE0078
:103500004F05BE004F04BE008F04B100000006004E
:103510002F03B000889FBE008A9FBE008C9FBE0014
:103520008E1F780000077800D0E62100C0B79F000A
:1035300080C5B30080CF500008003200C2E52100F2
:10354000C2B79F007740400080CF500003003A0090
:1035500083002000B3B79F000A00370080C7B30084
:1035600080CF500005003200A4002000B4B79F00B7
:1035700080C5B30080CF500002003A000501200052
:10358000B5B79F003E04BE002E05BE0040C6B30086
:1035900080CF5000030032006540400080CF5000D3
:1035A0000B003A00E00F5400E08F5C00E00F5D007C
:1035B000E08F5D0006003D006000B8006011B800BB
:1035C00008045000898458000A0559008B85590069
:1035D0003FB19700E80F510003003200F00F510097
:1035E00045003A00020037003C002000010037008F
:1035F0004C002000E00F5400E08F5C00E00F5D0005
:10360000E08F5D0005003A005E0890008301200015
:10361000A3B79F000000E000080032003FB297000F
:103620000400E90008006000CFB297006540780010
:1036300090DF9F0070012000A0B79F008C007800F1
:103640008100E900050033008B05D1000A85D30015
:103650008984D3000884D300F9FF3700089FBE0097
:103660000A97BE002FB197000200E90023FC2F004B
:103670008F81410000844100140037002FB0970073
:103680000000E900A0B79F003FB197000200E900E9
:1036900004006000CFB19700635478003E00BE0084
:1036A0002E01BE000C0278000402E9000500330080
:1036B0008381D1000281D3008180D3000080D300B8
:1036C000F9FF3700009FBE000297BE003E02BE0019
:1036D0002E03BE00E00F5200E08F5A00E00F5B00A7
:1036E000E08F5B00DA0034002FB097000000E000AC
:1036F000E2FF3C00D6003700AE60900080C6B30009
:1037000080CF50000B00320006003C000104E000B6
:10371000080032006640500080CF500073003A002D
:1037200004003700C0C6B30080CF50006F003A00DD
:1037300031003700080178000800E00005003A0079
:103740005E08900081012000A1B79F000000E0000A
:1037500009003200BFB19700110009000381D800B1
:103760008000FD004FB297006440780090DF9F001A
:1037700075012000A5B79F003FB297001100090016
:103780000481D80080017800AFB297000500E900FD
:1037900021FC2F008F804000008240000C00370089
:1037A000BFB29700110009008501D8000001780020
:1037B0002FB097000000E900A0B79F000590B90066
:1037C00000805100CFB097006152780082017800EC
:1037D0000300E000030034002FB197000200E00076
:1037E000EFFF3C0003007800CF80DE00010178008D
:1037F000820178003A0037000806BE00E00F54004E
:10380000E08F5C0005003A005E0890008301200014
:10381000A3B79F000000E000090032003FB297000C
:103820006121B9000C00BE00BB090700CFB29700B0
:103830006540780090DF9F0070012000A0B79F00D6
:103840003FB297006121B9000C00BE00CA03070017
:103850000006BE00AFB297000500E90021FC2F0072
:103860008F8040008080400091B79F00110037009A
:103870003FB197006114B9000801BE000C00BE0002
:10388000C00607000005BE00AFB197008301E90044
:10389000A3B79F000801BE00B10307000000560057
:1038A0001FB29700CFB297006552780094B79F007F
:1038B0000A06BE00E00F5600E08F5E0003003400F1
:1038C0002FB097000000E000E9FF3C004FEADE0067
:1038D000CFA2DE000C00BE00040178008401780055
:1038E000009FBE000297BE0059003700E00F540051
:1038F000E08F5C00E00F5D00E08F5D0005003A00A6
:103900005E08900081012000A1B79F000000E00048
:103910000D0032003FB1970002027800CFA2DE0016
:1039200005037800860378000800BE000A01BE0087
:10393000FD0907004FB297006440780090DF9F00B8
:1039400075012000A5B79F003FB1970002027800E3
:10395000CFA2DE0005037800860378000800BE00D1
:103960000A01BE00E9090700009FBE000297BE00E1
:10397000AFB197000300E90024FC2F000F024200C2
:103980000006420024003700BFB29700050478000B
:10399000CFC4DE00090578008A0578000802BE0061
:1039A0000A03BE005FA89700EFA897007FA99700C1
:1039B0008FB19700E0090700D0B79F00E1B79F00E3
:1039C000F2B79F0083BF9F002FB097000000E9006F
:1039D000A0B79F000802BE000A03BE005FB09700B8
:1039E000EFB097007FB197008FB99700580A070092
:1039F0005FAA970000005200CFB29700655678008A
:103A00005FB09700EFB097007FB197008FB9970034
:103A1000009FBE000297BE003E00BE002E01BE0009
:103A2000D0AF9F00E1AF9F00F2AF9F0083B79F0030
:103A3000E00F5000E08F5800E00F5900E08F590070
:103A400003003400AFB097000100E000CEFF3C005F
:103A50003FB19700E80F510013003A000E1090009C
:103A60000038A30010003200AFB19700F78F51006B
:103A700006003E0024FC2F000F024200830042009B
:103A800000C3B300914F100007003200AFB297009F
:103A90008502E900A5B79F0000C3B30021FC2F00F9
:103AA0008F80400080F07A00AFB1970078811100DC
:103AB000120F98006E00900024FC2F000F024200AD
:103AC00083004200D9F807001E0990005E089000AC
:103AD000800F510006003D0002005000000F9800CA
:103AE0000E1090000040A100001798000F00370052
:103AF0000000E0000D003D000E109000740060001A
:103B0000F00F500009003A007E089000FE0090007F
:103B1000010050008E08900001005000020050008B
:103B20004240A90001003400000F98004F077800C0
:103B30004F06BE004F05BE004F04BE002F03B1006C
:103B40000000060080007800010037000000E80057
:103B50001004E000FDFF3A000100500000000600E4
:103B60000000E00003003400D8020700E10F40002D
:103B700001003A000000EB00000006000000E00039
:103B8000310032008080E90091027800E38F52001A
:103B90002D0036000508A3002B003A0042F68000F5
:103BA0000200E00002003200828F50000400310069
:103BB0000208780041F688001600370003017800FB
:103BC000920190000300E00002003200818F51005A
:103BD000FAFF39001202780004004100808F500083
:103BE00019003900810F500003003A000509420016
:103BF00082007800070037000300E0000300320075
:103C000005804000808F51000F003900930098001C
:103C100011019800110190000200E0000A0032003A
:103C200011804000820F500007003A0060EC210034
:103C30000008EB001100900011017800900841008D
:103C4000100090009000980000000600000178002D
:103C5000000020000000E0000800320000008000AA
:103C60000000E000050032000000E90000008800CC
:103C7000000040000100800002B078000000060053
:103C8000889FBE00800478006684400000FF270003
:103C9000180060004401DE00F07F2000800F51001A
:103CA0000E003A00800CEB00180478006F006400EE
:103CB0001C003A00210090000000E00019003A00CA
:103CC000110090000000E00016003A0010002000F3
:103CD0001100E00014003200120037000200E00082
:103CE00005003C0001007800DB01070000017800BE
:103CF0000000E00008003C00F00028001800600010
:103D000001FE2300010C700020C02F00800C410038
:103D10000080EB0004003700800CEB000000EB009B
:103D200001003700200020004F04BE000000060004
:103D3000889FBE008A1F78008C9FBE000004780018
:103D40000206BE00E6044000190178000200D0001F
:103D50004505DE008A007800F07F2000800F5500C6
:103D60000C003A006F00610065003A0028009000E6
:103D70000000E00062003A00180090000000E0003F
:103D80005F003A00100020001800E0005D003200E3
:103D90005B0037000A00E00007003A0008007800E6
:103DA000AD010700800078000000E0000200340050
:103DB0000A007800530037006108B9000C01400088
:103DC0008D814800E07F2000800F5100E08F590076
:103DD0000D0034001900E00004003D006000B80050
:103DE0000200200003FF2F00030037006000B8002E
:103DF0000200200003FF2700009CBE000294BE00CA
:103E0000100020003F003700E00F5100E08F590004
:103E100005003400F000280019006000C410DD0027
:103E2000810C700034003700190078000100280070
:103E3000010360006F0060000040A000800C78006B
:103E400061015100E0815900C0FC2F00F1FF2F00FB
:103E5000800F5100818F59000D003D00860C7800C5
:103E60000000EB002004980010049800000C78007B
:103E7000240037008880E800110C780064004400BA
:103E80009008780019087800800CEB007001410060
:103E9000F00F4100F7FF34008202EA001500320003
:103EA0008881E80070821200980078008508DE00A2
:103EB000130078000400DD00008C700064014400F1
:103EC000930078008508DE00120078000400DD0011
:103ED00080897000920078008508DE001900780063
:103EE0000400DD0000897000190078000500DE0084
:103EF000800C7800990C73000080EB000100370003
:103F0000200020004F06BE004F0578004F04BE0081
:103F1000000006000400FA00889FBE008A9FBE00D1
:103F20008C1F78000006780092BF9F00A3BF9F00FF
:103F30000404BE000401BE001FB89700AFB897008C
:103F4000100507000005BE000001BE000800BE000D
:103F5000030207001FB99700AFB997000000510096
:103F60008180590020069800310698000A8EBE0014
:103F70000C0078004F0678004F05BE004F04BE00CD
:103F80000080FA00000006000E00FA00889FBE00C4
:103F90008A9FBE008C9FBE00000478000145780017
:103FA0000206780083047800840678000300E000AD
:103FB00002003C0019002000CCED210060C6B300D7
:103FC000804F55000E00320060C4B300804F550092
:103FD0000B00320070C6B300804F55000300320062
:103FE00070C4B300804F55009C003A00E48F460037
:103FF0008000350058089000808F56007D003D00FD
:104000008D05E80060C6B300804F550010003200F7
:1040100060C4B300804F55000D00320008109000BE
:104020000038A30004003A0058089000808F540024
:1040300001003D00590C9800580890000B005000FA
:10404000500C980002003B000000EB00500C980060
:104050000B00E00027003C00180990006800900069
:1040600001C3B300017079008201E800130C9800CD
:10407000580890000000E00003003C000810900089
:104080000038A3000500320068009000E1C2B300D0
:1040900001F079000280E800100C9800D808900028
:1040A0000B00EA00808F500001003D008105EA000E
:1040B0000B00EA00200C980001804500500C98008D
:1040C000890F500001003D0080047800390C9800F1
:1040D00068009000980890000100400009017800F5
:1040E0008C00780051F70700580890000900500034
:1040F0001A00370098089000680090008B8F5400D9
:1041000018003D0001004000090178008C00780093
:1041100046F707001808900000814400120C980030
:1041200009805500200C9800580890000000E0001D
:1041300003003C00081090000038A3000600320085
:10414000E8009000E0C2B300807079003808900069
:104150000000E800300C980058089000400C9800CF
:10416000A6003700010040000B0178008C007800A9
:104170002EF707001808900000814500120C9800E7
:104180008B845400580890000000E00003003C00BD
:10419000081090000038A30005003200680090006D
:1041A000E1C2B300017079000200E800100C980031
:1041B00058089000890F500001003D0080047800ED
:1041C0006800900098089000010040008B004600B5
:1041D0000901780015F707001808900000804400D6
:1041E000100C98005808900009005000200C98000E
:1041F0008200370070C6B300804F550003003200C4
:1042000070C4B300804F550014003A005808900065
:10421000808F540004003D00081090000038A30077
:1042200001003A00590C9800580890000000E9007D
:10423000500C980002003B000000EB00500C98006E
:1042400070C6B300804F550002003A005AC6B30052
:104250000B0037005AC4B3000900370010C6B30082
:10426000804F550002003A000AC7B300040037002F
:1042700010C4B300804F550001003A000AC5B300D6
:1042800018099000680090003C7079008201E800F5
:10429000130C98000C027800580890000000E00011
:1042A00003003C00081090000038A3001700320003
:1042B000E8009000E0C2B30080F079008280E8005E
:1042C000110C9800580890000000E0000F00340026
:1042D0008904E900890F500001003D008004780046
:1042E0006800900000804000090178008400780098
:1042F000CEF607001808900000804400100C9800CB
:104300005808900009005000200C980068009000A8
:1043100098089000010040000086E8000A587800E4
:10432000800078000D00E00004003500B0C2B3004A
:10433000804878008C04780004003700D0C2B300B5
:10434000804878008C0478008D06EA008005EB0038
:104350000A003700A20020008D007800708057000E
:10436000890007000FB897009FB897007A81550021
:1043700001F17F008B05E800800678000D00E00069
:10438000F4FF3C00E18F550009003C0050C6B3002B
:10439000804F55000300320050C4B300804F5500D9
:1043A00003003A0000C3B300005E78008C0478007C
:1043B0000B00E000040032000B00E900FA80570017
:1043C000008040000600370000C3B300805C780026
:1043D000050037008B05E90002C3B300A05C410073
:1043E0000B00E000FBFF3C00680090009808900084
:1043F0000100400000805400300C9800081090002C
:1044000074006000F00F50000E003A007800900039
:104410009808900001004000A808900001004000AA
:10442000B808900001004000C808900081004000DA
:1044300078089000808F500002003D00010050007D
:10444000000C98004F06BE004F05BE004F04BE0092
:104450000080FA000000060000027800E60240003A
:104460001500780001002800810360006F006000E3
:10447000800A780012003A00240090000000E0005A
:104480000F003A00140090000000E0000C003A0019
:10449000160020001400E000380032000800370049
:1044A000E4004200910A78000480E8009008780057
:1044B00014087800000AEB00700353000100370075
:1044C000160020001500E000F5FF32001300370051
:1044D0006401420080004000120078004F00DE00BE
:1044E000808A70008481E80092007800818040001A
:1044F000130078004F00DE00008970009300780000
:1045000081804000140078004F00DE008089700038
:1045100014007800000A40000603E9001500780046
:10452000EF0F5000EAFF3600100037000481E8006A
:104530009400D100120078004F00DD00008A700066
:10454000E40042009201D100110078004F00DD002C
:10455000008971001101D100150078004F00DD00C5
:1045600080087100950AD1000603E8001500780064
:10457000FF0F5000EDFF3E00EF0A6000958A7300C8
:10458000060078000000060002027800809FBE004E
:10459000110009008200D800000178004F00BE0021
:1045A00002A2B9008480500011009800020878002F
:1045B000000006000A00FA0080017800E20F5000B7
:1045C00025003E0000F78000E10F50000800320097
:1045D000802320000000E0000500320004232000BA
:1045E00025232000462320008001780004003700A6
:1045F00004222000252220004622200083222000C1
:10460000144090000004E000030035008009EB0036
:1046100000002800140A7000154090000028A30034
:1046200001003A0015A0A0008001EB000700370050
:10463000154090000008A300FDFF320063C0780021
:104640000000FB00000B78008301E800828F51001E
:10465000F7FF3A000800370030002000B0BF9F008D
:10466000C3BF9F00D1BF9F00E2BF9F006A80570079
:1046700000C0DA006FB99700020078000080FA00ED
:10468000000006000A00FA0011002000B1BF9F00E0
:10469000C0BF9F006A80570000C0DA004FB8970083
:1046A0000080FA00000006000A00FA005100200015
:1046B000B1BF9F00C0BF9F006A80570000C0DA00F2
:1046C0005FB897000080FA0000000600889FBE00D7
:1046D0008004780010F780000000E00003003A003A
:1046E000100007000000E0000A00350010F780000D
:1046F0000900E00002003A000004780006003700DC
:104700000004780009004000060007000000E000F7
:1047100001003D000084EB00080078004F04BE005B
:1047200000000600800078000000E00004003A006D
:1047300040EE210010F788000101780006003700E4
:104740000081EB00800D2200808F500002003E00AF
:1047500011F788000001EB0002007800000006005D
:10476000020AB900001BB9000200B8008100420033
:1047700081004300000006006022B800060220000D
:104780000000D0008180D2000482D2008582D20055
:104790000000A0000202520083825A000300310090
:1047A0000202420083824A000000A1000603E900E1
:1047B000F3FF3A00000006001400FA00889FBE00D4
:1047C0008A9FBE008C9FBE000005BE000206BE0090
:1047D000680047000C90BE000A90BE00FE02070071
:1047E0006400E1001A00320016003E006100E100A2
:1047F0001A0032006E049000FE0490000E0B900030
:104800009E0B90006011B8009E0590000B38B1001F
:10481000D501200082817100610164008703D1000D
:104820000683D3008984D3000884D3008502E9007D
:10483000F8FF3A000F0307000DF0A70001F0A000F9
:1048400046033700F1FF2700F0FF2F004303370036
:1048500001F8270000002000F7FF37006000B800D3
:10486000F5FF3700889FBE008A9FBE008C1F78002E
:104870003F0307004603330003866C006450E100E9
:10488000240032006420E100270032006150E10082
:10489000220032006120E100210032008B854200BD
:1048A000EB07B1000134B800003AB8000804420038
:1048B00089844A00013AB8000030B800888040007E
:1048C00009014A00040033000000400081804800D4
:1048D000020149008B05E900C909DD008301700070
:1048E0000100320013002000C814DE004814DD006F
:1048F0004709DE001200B200C808DE00088470001C
:10490000DC02070001F0A1000CF0A70001F0A000FC
:10491000280337006120E1002A0332000801BE00AD
:104920000200BE00F7FF37006150E100FCFF3A00D3
:1049300024033700889FBE008A9FBE0001057800CF
:104940000100E0000400350008003C000000E00029
:10495000200032000500370060001000E0801800E1
:1049600002003B0001F02C001A0037000004BE00DA
:104970006011B8006B0920000982CF0002003900E5
:104980000882CF000441B000694252000E0032009C
:1049900008003B0082817100610164008904D1003C
:1049A0000884D3008B05E8000442E800F9FF3A00D0
:1049B000050037000804440089844C008B05E90099
:1049C0000442E900FBFF3A00AA0207000AF0A70030
:1049D00001F0A0004F05BE004F04BE00000006001D
:1049E000889FBE008A9FBE008C1F7800E0020700EF
:1049F000E702330003866C006450E1002E003200B1
:104A00006420E100330032006150E1002F003200E9
:104A10006120E1003100320085855500EB07B000D0
:104A200009002000080420000500370008044400A5
:104A300089844C000A0031000603430087834B0041
:104A40000001530081815B00F8FF33000203BE00C8
:104A50000800A0000804440089844C00F6FF3900D7
:104A6000C639DD008301730001003200130020000D
:104A70008904D1000884D3000998A30005003200FE
:104A80000800A7000300A0008904D1000884D30017
:104A90008B05E8008904D1000884D3000001EB00F5
:104AA0000281D2007302070001F0A1000CF0A70000
:104AB00001F0A000BF0237006420E100C102320013
:104AC0000801BE000200BE00F7FF37006120E100D0
:104AD000BC0232006000B800F3FF37000000200085
:104AE00001F82700F0FF37008F1FD100B802070040
:104AF0008F87E9000000E0000000060007F0A20038
:104B00007C0137002800FA00889FBE008A9FBE0003
:104B10008C9FBE0003866B007C0207006400E100EE
:104B2000440032006408E1004A0032006100E10004
:104B3000460032006108E10049003200EC064700FF
:104B40006000B8003D02BE003D03BE00F486570081
:104B50006011B8003D04BE003D05BE007D0320008D
:104B60000B0037000000A0008D06E90013003200A2
:104B70000402420085824A0006034B0087834B00F3
:104B80000000400081804800020149008381490003
:104B90000802520089825A000A035B008B835B0083
:104BA000F0FF3B000802420089824A000A034B00E2
:104BB0008B834B008D06E900EDFF3A008482720082
:104BC00086827200F707B20087827200010032000D
:104BD000150020001E0490003E0B900006035400B8
:104BE000E63FB0000368A300070032000000A70002
:104BF0000500A0008301D1000281D3008180D30091
:104C00000080D3000603E8008301D1000281D300B5
:104C10008180D3000080D3000002EB000482D20028
:104C20009402070003F0A1000CF0A70003F0A0001D
:104C30004A023700640247006408E100440232007F
:104C40003400BE003401BE00F6FF37006108E10009
:104C50003F0232006011B8006000B800F1FF370079
:104C600003FF270002002000FBFF370003F0A20033
:104C7000889FBE008A9FBE008C1F78003C02070000
:104C8000430233006450E1004F0032006420E10031
:104C90005200320003826C0007003B000905D0007F
:104CA0000306D000820F54000C065D00020039009C
:104CB00002003200890178000306780085825500E1
:104CC00004003D000003FD008103FD008502EA00B1
:104CD0008B854200840F720002003B0060001000D0
:104CE000E08018006011B8000005EB007A28E100B0
:104CF0000A00390006007800C75DDD00F707B20042
:104D0000878075002D003700828171000A017800CC
:104D1000610560008180D1000080D3008502E90038
:104D2000F9FF3B00060440008784480002003B0076
:104D300060041400E0841C000988A300070032000E
:104D40008A81710082817100610164008904D1004F
:104D50000884D3008B05E800170037000978A3000A
:104D600013003A000B00E000130034008B05E9004B
:104D70000804440089844C000A4474000978A300A4
:104D80000D003A000B00E000070034008B05E9003D
:104D90000804440089844C0001003A000B00200004
:104DA0000978A300F7FF32000001EB000200370092
:104DB000828171000A017800AE0107000CF0A700A3
:104DC00001F0A000FB0137006420E10002003A007E
:104DD000838F6C00FB0133000801BE000200BE009F
:104DE000F4013700810378004E0207000001BE0085
:104DF0006000B8000478A30013003A006220E100CC
:104E000015003E000D0039008301D1000281D3005E
:104E10008180D3008301D1000281D3008180D3003F
:104E20008301D1000281D3008180D3000538B00016
:104E3000C42ADD00F300B2008381720007F0A700EE
:104E400003F0A00000000600F3FF2700F2FF2F0090
:104E50006110B900FBFF370003FF2700F7FF3700A1
:104E60000001EB00440207000400320002002000B1
:104E700003F8230001F0A7007CFF070000000600F4
:104E80000001BE00270207000470A70003F0A10084
:104E900003F8A30013003A006509B10010003200C6
:104EA000090035006928E1000200350001002800F2
:104EB0000000050000004000818048008502E900F4
:104EC000FCFF3A0000000600F88F420005003500A4
:104ED0008100D1000080D3008502E800FCFF3A0089
:104EE000000006008000EB00000005000001EB0060
:104EF00021020700040032000200200003F8230012
:104F000001F0A6005AFF0700000006001400200070
:104F1000400237004F89DE008201780058023700D6
:104F20002800FA00889FBE008A9FBE008C9FBE00AA
:104F300003866B00750107000028A30064003A0097
:104F40000128A30067003A000008A30062003A00AD
:104F50000108A30065003A001E009000BE08900002
:104F600081064000ED3FB100F4805700EE01900053
:104F7000111AB8008E099000311BB8009E099000EC
:104F8000311CB800511DB800F485570046000700D9
:104F9000FE0190003A0007008B85E8003E00070004
:104FA0008E09900040000700EE01900034000700D9
:104FB0008B85E800380007008E099000400007004C
:104FC0009E0990001B18B800890440000A8548001B
:104FD000FE019000340007008B85E80038000700D0
:104FE000EE019000300007008E0990001B18B800F9
:104FF000890440000A8548000A98A30008003A0086
:105000000402420085824A0006034B0087834B005E
:1050100008044C0089844C000A054D008D06E90007
:1050200084827200850273004C3ADD0085027200B2
:105030000100320015002000443ADE001400B200E6
:105040004538DE00CB45DD000B007000C540DE00BA
:10505000CB4DDD008B8070004549DE00CB55DD0077
:105060000B017100C551DE000D03780081010700BE
:1050700003F0A1000CF0A70003F0A00037013700F7
:105080001B18B8008502400006834800E0834B00EF
:1050900060044C00070037001B18B80006034000EE
:1050A00087834800FAFF37001B18B80087034000C9
:1050B00008844800E0844C0060054D0000000600B4
:1050C0001B18B8000804400089844800FAFF370024
:1050D0000108A3001E013A005800BE005801BE009E
:1050E000E3FF37000008A30019013A000904780023
:1050F000F9FF37002800FA00889FBE008A9FBE0093
:105100008C9FBE0007067800878669000C003B0074
:10511000030478008704780008F0A10009F0A100DA
:10512000840F5000858F5800860F5900890F5C004E
:10513000030033000CF0A20001003A000CF0A100C3
:10514000F20007006400E1005F00320078014700D0
:105150006408E100610032006C014700748557006B
:105160003200BE001201BE003A04BE001A05BE00A5
:105170001E039000BE0A90008503530006003D0008
:105180000004FD008104FD000205FD008305FD0013
:105190008703EA00050378000DF8A300040032003D
:1051A00060041400E0841C0060051D00E0851D0003
:1051B0006022B8007D0320000D38E1008006EB007E
:1051C0000B0039004433DD00F300B20083017300AB
:1051D00039003700848272000D027800E106640015
:1051E0008B85D1000A85D3008984D3000884D3003D
:1051F0008703E900F7FF3B00080040008980480072
:105200000A0149008B81490004003B006000100046
:10521000E080180060011900E08119000358A30024
:10522000090032008D827200848272006102600087
:105230008301D1000281D3008180D3000080D3009C
:105240000603E8001B0037000348A30017003A00DC
:105250000600E000170034000603E9000D00A3007B
:105260000000480081804800020149008381490014
:105270000348A3000F003A000600E00009003400D4
:105280000603E90000004000818048000201490057
:105290008381490001003A000003EB000348A300AA
:1052A000F5FF32006022B8000200370084827200ED
:1052B00061826600EF00070003F0A1000CF0A70078
:1052C00003F0A000A5003700640147006408E10076
:1052D00002003A000DF8A3009D003A003200BE0023
:1052E0001201BE009D003700F4FF2F004901370076
:1052F0000001EB00990137000001BE000901070021
:105300000470A70003F0A1006509B1001600320087
:105310000D0035006828E10006003500F0FF2F0081
:10532000F1FF27000300E00013003B00010028000C
:105330000000050000004000818048008502E9006F
:10534000FCFF3A0008003700F88F420002003C00E2
:105350008000EB00000005008100D1000080D30038
:105360008502E800FCFF3A000300E00002003B0079
:1053700060001000E0801800000006000081EB00D3
:1053800076013700839F68000100E00002003D00C5
:1053900060001000E08018000300E00002003D0003
:1053A00060011100E0811900F3FC07004F00E000EC
:1053B00002003B0060001000E080180000000600C2
:1053C000CF01070092BD2500E3ED230025FD370046
:1053D000040020000F013700800078005002BE005A
:1053E0005003BE004439DE00F700B200F37F200016
:1053F00003016100090032000218E10016003A00C2
:10540000850172008301730083817300000820000E
:1054100015003A004000200013003700850172009B
:10542000830173008381730005003A0004A8BE0065
:1054300006A8BE00100020000B0037000201E900A2
:105440000402420085824A0006034B0087834B001A
:105450000748A300F9FF32000740A00004A8BE00DF
:1054600006A8BE002000200080009800920098004E
:105470000000060081002000618055000B003D0007
:105480000B00200061FE2F000100E1001D00340030
:1054900082817100610164008904D1000884D30015
:1054A0000000E800FAFF3A0071002000610064008B
:1054B0000300700002006000090032006104440033
:1054C000E0844C000988A500050032008B05E80047
:1054D0006808E10002003A008904D1000884D30082
:1054E000F20F20000258E10005003D00C75DDD001D
:1054F000F907B200898075000800780000000600F6
:105500000BF827008B0078000000050068044700B6
:105510000294BE000094BE00FC0447008694BE00C6
:105520008494BE0009007800ABFF070008007800F3
:10553000A9FF070099007800814F70000B003B0025
:105540000800BE00C50107004F00B100030037008E
:10555000F3FF2700F2FF2F006110B9004F06BE00D5
:105560004F05BE004F04BE000080FA000000060098
:105570000004BE006B0007000003BE000405BE006F
:105580000200BE0067000700844F7500000006009F
:105590000200BE006450E100050036006420E10016
:1055A000020036000968A30001003A000800BE00AE
:1055B0000160A0004F0678004F05BE004F04BE00FA
:1055C00000000600F0FF2F00F1FF2700F9FF370071
:1055D000889FBE008A9FBE008C9FBE000404BE0050
:1055E0000605BE00809FBE00829FBE00A901070085
:1055F000040678000800BE000A01BE00A5010700ED
:10560000840678004F03BE004F02BE008D4F760027
:105610007FB0970013003300F0FF2F008B8F6B00DB
:1056200006003B000D0666000C00A7000A003700CC
:1056300007F0A600100020000A003700880F520073
:10564000898F5A008A0F5B008B8F5B000300390043
:105650001000200001003E000000200007F0A7001D
:105660000000EA004F06BE004F05BE004F04BE001A
:105670000000060018002000570020000804530016
:105680000D003D000600200097FC2F000740E100C0
:105690001E00340084827200610260008301D10028
:1056A0000281D3008180D3000080D3000804E80089
:1056B000F8FF3A0047002000610460000504740010
:1056C000040464000D00320061004000E0804800E6
:1056D00060014900E081490003B8A50007003200DD
:1056E0000603E8006538E10004003A008301D100B8
:1056F0000281D3008180D3000080D300F87F200096
:105700000830E10003003500080378006000B800AD
:105710006011B8004433DD00F300B2008301730070
:1057200000000600C70ADE00F107B200F50FB20064
:1057300008003200E1CF4200020032000170A000F8
:1057400024000500810F70000100320004080500EC
:1057500044000500810F700002003A0014000500AB
:105760008502E9000000400081C04800FCFF3B00CA
:105770000170A00024000500889FBE008A9FBE0023
:105780000003BE00E7FF0700850578008281520014
:10579000020020006220E10004003A00F307B1009B
:1057A000040035007718E100040035000600BE0053
:1057B000140037006000B8000F003700F50F20001C
:1057C000FAFF2F008502D1000A85D3008301E9008A
:1057D000FCFF3B008184620000046500890F7400B7
:1057E000F2FF32008582EA000A85EA0081846200C5
:1057F000000465001FFF070007F0A70001F0A000EC
:105800000081EB000200E0004F05BE004F04BE0027
:1058100000000600889FBE008A9FBE00841F78009B
:1058200053FF07004F00780011003300F0FF2F00F6
:10583000838F6C0006003B00040565000A00A7008A
:105840000800370009F0A60010002000080037000B
:10585000820F5400838F5C00030039001000200089
:1058600001003E000000200009F0A7000000EA004F
:105870004F05BE004F04BE000000E000000006001F
:10588000889FBE00830478000300E0002C003500F0
:1058900003003C0000827000040271002600320008
:1058A00036432000C50020008383CF000A00390062
:1058B0000541B1008283CF00070039000541B100E6
:1058C0008183CF00040039000541B1008083CF00FF
:1058D000010039000541B10085C353006022B800C2
:1058E000120032000A003B008482720061026000F4
:1058F0008301D1000281D3008180D3000080D300D6
:105900000603E8008743E800F7FF3A000700370086
:105910000000400081804800020149008381490065
:105920000603E9008743E900F9FF3A0051FF070049
:1059300009F0A70003F0A0004F04BE00000006001D
:1059400060001000E080180060011900E08119007B
:10595000D3FF3B00033E2C00F7FF3700889FBE00BB
:105960008A9FBE008C9FBE00820578000004BE00A6
:105970006CFF07000800BE006420E100070039004A
:1059800002003A00F1FF2700F0FF2F000160A000A5
:105990001202200082988800550037006120E10043
:1059A00003003A000B00A70001F823005000370065
:1059B00001F0A100020021009364240053FD0700C0
:1059C0000800BE0004003500B2FD2000930C240046
:1059D000C20007000004BE000005EB000B00A6009B
:1059E0004F0DDE0001F0A1000004BE0032982F0030
:1059F00023EA23009BFB07000001EB0003F02300D8
:105A00000B00A70003F8230099FC07003AFE0700EB
:105A10000000A7000A00A200C6FB07000B00E00080
:105A2000030032000200200003F023008FFC070077
:105A300001F0A2000006BE00020020009304240032
:105A400088FB07000801BE0089FC0700809FBE009C
:105A50000C00BE0022A22A00D3A7230081FB07006E
:105A60004F01BE0082FC07000004BE0001F0A1004F
:105A7000020020000398230024FD07000800BE0058
:105A8000190035000001BE0076FB07000006BE00CD
:105A9000B2C52900E362230072FB070022222B001B
:105AA000F3942B0072FC07000C01BE006DFB070095
:105AB000E273280083C023006DFC07000C01BE00C8
:105AC00068FB070042AA2A00A3E22B0068FC07003B
:105AD0000C01BE0063FB07000801BE0061FB07006C
:105AE0000801BE0062FC07000A00A70001F0A20046
:105AF0004F06BE004F05BE004F04BE00000006006A
:105B0000889FBE008A9FBE008C9FBE007500070064
:105B1000850478000005BE006420E10049003E00D5
:105B20006220E10003003200090035000BF8A300F9
:105B3000440032000BF8A3000800320010022000DD
:105B400080988800F0FF2F00F1FF27003D0037000C
:105B500001F82F00000020003A0037003D00070048
:105B600042FC07000006BE000A00BE00324F2000C3
:105B700053F32300DCFD0700060034000C00BE00D8
:105B80003400070039FC07000006BE000A00BE0012
:105B9000020037008904E9000C00BE002D00070058
:105BA00030FB07002B00070031FC07000001BE009E
:105BB0000C00BE008AFB07000005BE000001BE000D
:105BC00028FB07000006BE00A2F32300430D2C00B3
:105BD00027FC0700809FBE000C00BE00D2E3270018
:105BE000D3F02B001FFB07004F01BE007CFB07001A
:105BF0000006BE000A01BE001AFB07000A01BE0033
:105C00001BFC07000006BE006148B90049FB070005
:105C10000005BE0032082800E3952B0011FB0700A9
:105C20000C01BE0012FC07000006BE000A00BE0008
:105C30000200280013F323000AFB07000C01BE003A
:105C40000BFC07004F06BE004F05BE004F04BE0010
:105C50000000060003F0230002000500E48240007B
:105C60001078A30007003200640240001178A300FE
:105C70003400BE001401BE00040032000330A7004F
:105C8000000006003500BE001501BE000330A00074
:105C90000000060005FF27000582610007003200B2
:105CA0000428E1000100320024000500060007007E
:105CB00001003A0044000500040805000200070046
:105CC000F9FF3A00140005006F8261008102700044
:105CD00085027100850272000000060004002000A9
:105CE0000D0037000003BE008EFE07006220E100B9
:105CF000020032000600BE0005000500E507B10005
:105D0000F107B20004F023008480700007F0A700C0
:105D100001F0A00024000500889FBE008A9FBE00FD
:105D20008C1F78004F26DD0011FE070018FE33009F
:105D30006120E100430032006250E10041003E007A
:105D40003E0039006420E1003C003200058255002D
:105D50000F003B000402E80038003A00800F5300B7
:105D6000818F5B00350034000800BE0003F0A10005
:105D700001F0A60003F0A0000CF0A700BCFB070098
:105D80000CFE37000603430087834B000C46460099
:105D90000005530081855B00020033000A03BE004A
:105DA0000C00A0000402E900F6FF3B008505780026
:105DB0000602430087824B0004003A006000B800EE
:105DC00009F0A70001F0A000FAFD37000002520020
:105DD00081825A000704E0000400330006034300F8
:105DE00087834B008B05E900FAFF3700090578002F
:105DF0000604BE000203BE006011B8009DFD07004E
:105E0000E00F5200E08F5A000700350002003C000E
:105E10000C08A300040032000601BE0003F0A0003D
:105E20000CF0A70092FB07000A85680001F0A100B2
:105E30000AF0A70001F0A000DEFD37000800BE0058
:105E4000DCFD3700100220000CF0A60080988800CE
:105E5000DCFD37001400FA00889FBE008A9FBE0058
:105E60008C9FBE000004BE000205BE006800470013
:105E70000A90BE000890BE0057FD07000070A70002
:105E80000BF0A100304320009E029000808252005F
:105E9000B0FE2F000028E10011003D00B0FC2F00F3
:105EA0000028E100150034001E0990008E089000C3
:105EB0007E0090000501B0000201D1008180D30076
:105EC0000080D3008502E800FBFF3A000B00E000F1
:105ED000A2FD3B0060001000E08018009FFD37002D
:105EE000F0FF2F00F1FF27000B00E0009BFD3B00BF
:105EF000010028000000200098FD37006000B80075
:105F000096FD3700809FEB00B1FD07008F87E90009
:105F10000000E0000000060017FA07000400BE00C1
:105F200000000600881F7800000478005001BE00C1
:105F30004000BE0004004000858048000601490082
:105F400087814900009CBE000294BE000400E1006D
:105F50000588E1000690E1000798E10002003100A9
:105F6000680044001008E8004F04780000000600B4
:105F7000F4874700889FBE008A9FBE008C9FBE00AA
