:020000040000fa
:080000000004040000000000f0
:020000040000fa
:100800004fe0200000ff27000001880000000000ea
:100810000c00070060b82000010020001100070054
:10082000000020000000e000020032000000020092
:10083000000000004e070200000000000040da0047
:100840000000fe004440a900400120000000e0003c
:100850000300320000002000a00188004440a800ee
:100860000000060091018800800078000000eb0085
:1008700015003700e280400032a0b4009101ba00b8
:10088000e280400032a0b4009102ba00e280400051
:1008900032a0b4000002eb00472bde00f507b200e7
:1008a000602ce10004003a000059eb008301e900ec
:1008b000fdff3e00040037006128e1000100320026
:1008c0000082eb00040007001101ba000200e00002
:1008d000e8ff3a00000006003159ba008301e90040
:1008e0000c0032002159ba008301e90008003200ef
:1008f0000400e00003003a00e280400032a0b400af
:10090000f5ff370011d9ba008301e900faff3a0078
:100910008100e800e180400032a0b4000000060041
:020000040000fa
:0200000401f009
:04000000ffff0000fe
:020000040000fa
:0200000401f009
:04000400ffff0000fa
:020000040000fa
:0200000401f009
:04000800ffff0000f6
:020000040000fa
:0200000401f009
:04000c007bff000076
:020000040000fa
:0200000401f009
:04001000bdff000030
:020000040000fa
:0200000401f009
:040014007fff00006a
:020000040000fa
:0200000401f009
:04001800fdff0000e8
:020000040000fa
:0200000401f009
:0400200021000000bb
:020000040000fa
:0200000401f009
:0400240005000000d3
:020000040000fa
:0200000401f009
:0400280020000000b4
:020000040000fa
:0200000401f009
:04002c0013000000bd
:020000040000fa
:100008009a0b00009a0b00009a0b00009a0b000054
:100018009a0b00009a0b00009a0b00009a0b000044
:100028009a0b00009a0b00009a0b00009a0b000034
:100038009a0b00009a0b00009a0b00009a0b000024
:020000040000fa
:020000040000fa
:100920004f48000032550000472000002f200000f3
:10093000323200002e300000352e00003230000030
:0809400031330000000000004b
:020000040000fa
:100948000400fa00008fbe003200f8009101880010
:100958009080ba001000ba003200f900008fbe0083
:100968001e00be000080fa00000006000800fa0021
:10097800008fbe0022079800330798001e01be00b2
:100988002e009000be0090003200f800930188000d
:100998000189bb000009bb003200f9000080fa00a1
:1009a800000006000200fa00000f78001e00780020
:1009b800003b88000500fc0050052000303b880003
:1009c800a00a2000303b880061e7a8000000000072
:1009d8000000000061e7af00feff37000080fa006a
:1009e800000006000400fa00000f780011079800c4
:1009f800070037001e007800104078001e0fe8003e
:100a0800080307001e0090000000e9001007980086
:100a18001e0090000000e000f6ff3a000080fa0097
:100a2800000006000400fa00000f78001107980083
:100a380008003700f3020700804078001e007800a5
:100a4800014878001e0fe8001e0090000000e90031
:100a5800100798001e0090000000e000f5ff3a0023
:100a68000080fa00000006000400fa0031002000af
:100a78000e007800ebff07000040eb0030479800bd
:100a88001e00be000080fa00000006000800fa0000
:100a980020079800310798002e009000be009000b3
:100aa800a7ff0700008fbe00410020000e0078005d
:100ab800ccff07000080fa00000006000c00fa00d6
:100ac800400798005107980000802000000f780028
:100ad8000000eb00100798001a0037004e00900045
:100ae800de00900096ff0700200798003107980065
:100af800ee4090001e007800014878001e0fe800c4
:100b0800de4090001e007800014878001e0fe800c3
:100b1800ce4090001e007800014878001e0fe800c3
:100b28004e009000de00900062004000e080480027
:100b380040079800510798001e0090000000e80048
:100b4800100798009e009000f01f2000808f500032
:100b5800e2ff36000080fa00000006000c00fa00f0
:100b680030079800410798003e0090008000d100af
:100b7800f01f2000008060006300b900800078004a
:100b880000802000008f40001e0078001040780090
:100b9800204798001e00e800104078003047980071
:100ba8001e80e80010407800404798000040eb00a5
:100bb800504798001e019000ae0190003e00900042
:100bc800ce00900069ff07001e009000e10f400072
:100bd80003003a004e409000e14f4000030032000d
:100be8001000200050079800020037000000eb00ba
:100bf800500798002e4890000080fb000080fa0003
:100c0800000006000800fa00200798003107980045
:100c18000040eb00004f78000000eb001007980040
:100c28000e0037001e0090006101b8002e009000f1
:100c3800be0090000200400083804800c7ff070004
:100c48000004e0000200320010c0b300004f78003a
:100c58001e0090000080e800100798009e00900099
:100c6800f0072000808f5000eeff36001e04e000e1
:100c7800070032002e009000be009000780040006f
:100c8800e0804800b5ff07001000240045ff07007a
:100c98000080fa00000006000c00fa0030079800f7
:100ca80041079800520798003e009000ce0090003f
:100cb80023ff07001007980021079800de00900026
:100cc80000802000008f4000ae4090001e00780099
:100cd800014878001e0fe800be4090001e00780012
:100ce800014878001e0fe800ce4090001e007800f2
:100cf800014878000080fa00000006000600fa00ab
:100d080010079800210798001e009000ae00900080
:100d1800e00f5000e08f580007003a000001eb0098
:100d28006000b800dcff070032002000200020002f
:100d380001002000d8ff07006011b8001e009000d5
:100d4800ae00900009ff07002004240015ff0700eb
:100d58000000eb00000f7800090037001e00780043
:100d68006101b8001e009000ae0090000200400033
:100d780083804800a3ff0700000820001e0f4000e2
:100d8800f03f20009e0f1000f4ff36000080fa00ac
:100d9800000006000200fa000000eb00000f7800d7
:100da800090037001e007800018020000100400083
:100db800310020001bff070010c0b3001902070014
:100dc8001e007800630f4000700120009e0f100085
:100dd800f4ff36000080fa00000006000a00fa005e
:100de80000002000810f2000008fbe006000b800c6
:100df80030079800410798000000eb002007980092
:100e08001f003700ae0090000080200000804000e6
:100e1800104078000004e00012003a002e00900014
:100e28008000e8000080200000804000104078002a
:100e3800604798002e0090008080e8000080200025
:100e48000080400010407800704798003e019000f4
:100e5800ce0190001e00be00c4fe07000000240062
:100e6800d0fe070020002000010020001e0f4000d7
:100e78005e9748002e00900063004000200798000d
:100e88002e009000f70f5000deff36000080fa00b9
:100e9800000006000800fa007f0107000004e000d7
:100ea80002003a00020c04000000000000c020000c
:100eb80001002000a2fe0700004f78001e04e00099
:100ec80002003a00020c0400000000001e407800f6
:100ed800ed010700dd010700e50107000004e0005f
:100ee80002003200020c040000000000a501070007
:100ef8000004e000f8ff320000003700c1010700dd
:100f0800004f7800960107001e80fb00300798000c
:100f18003e009000e30f50001a0032003e0090009f
:100f2800e30f500007003c003e0090000000e00086
:100f3800350032003e009000e20f50000b003200f6
:100f4800340037003e009000e80f50002a003200bd
:100f58003e009000e90f50001e0032003e00900055
:100f6800e70f5000220032002a003700befe0700bb
:100f7800d2fe0700016020000080200099fe0700d3
:100f8800deff3700b8fe0700100798002107980019
:100f98000160200000802000a2fe07009e00900053
:100fa800f03f2000008060000000e00006003a00ea
:100fb8001e009000ae00900050ff070010c0b30064
:100fc80098010700cdff37000040eb0095010700ae
:100fd800caff370000002000f10f2000abfe070019
:100fe80020002000f10f2000a8fe0700c3ff3700f3
:100ff80068ff0700c1ff370078ff0700020c0400f4
:1010080000000000bdff3700020c040000000000d3
:10101800baff37000040eb0082010700b7ff370036
:101028000200fa00000f78001e0078000000d100ce
:10103800610060000004e00002003200d6e2a9006e
:1010480001003700d6e2a8009e00780061806000a9
:101058000004e00002003200d6c2a90001003700f7
:10106800d6c2a8000080fa00000006000200fa00bc
:10107800000f78001e00e0000d0032001e0078000e
:10108800e7ff07000400090000000000d662a8007e
:101098001300090000000000d01680004700de00a1
:1010a800610060000004e000fbff3a00d662a9007e
:1010b8000080fa00000006000200fa00000f780025
:1010c8000080eb00c0168800d682a900d6a2a8002e
:1010d8009e00780062806000e4ff07009e007800b0
:1010e80061806000e1ff07000080fa000000060050
:1010f8000200fa00004f7800d6a2a9001e80fb006b
:10110800e01688000000eb00c01688000400090003
:1011180000000000d662a8001300090000000000cb
:10112800d662a90010000900000000000080fa0043
:10113800000006000400fa00000f7800214798001c
:101148001e007800dcff07001e007800b4ff0700cf
:101158002e409000e6ff07000080fa00000006001d
:101168000400fa00004f7800f0c3b3009e4f10004f
:1011780003003e00200020001007980002003700fe
:1011880010002000100798001e0090000080fa0050
:10119800000006000200fa00004f780080cbb30080
:1011a8009e40700030002000e2ff07000080fa0037
:1011b800000006000200fa00881f7800004f78003f
:1011c8001e407800f2c3b3008240600000c4b30040
:1011d80000c07000004478001e407800e0ff07005f
:1011e80088407800d3ff07001e40780002eeb70061
:1011f8004f0478000080fa00000006000200fa00a0
:10120800004f7800114798009e40780067c0600042
:10121800e0ff07001e4090000074a100e5ff0700f2
:101228000080fa00000006000200fa00004f780073
:101238001e407800f2c3b3008240600000ccb300c7
:1012480000c070008040780030002000b9ff07001f
:101258000080fa00000006000200fa00004f780043
:1012680002cebf00beff070093ff0700d682a8008a
:101278001e4078009eff070002cebf000040e80035
:1012880002eeb70002cebf000074a10002eeb70064
:1012980002cebf000004e0000500320021e020007b
:1012a8009140780000c4b30080cf500002003a009b
:1012b80002cebf00bfff07000080fa000000060052
:1012c8000400fa00204798000040eb00d6ff070012
:1012d8000f0037008040eb002e409000c7ff07004a
:1012e8000040eb00004f7800030037000040eb009f
:1012f800d9ff07001e4fe8001e4078000004e000f8
:10130800faff3d002e4090000040e800204798007a
:101318002e409000e74f5000eeff36008040eb0073
:101328000040eb00b5ff07000080fa00000006004f
:101338000200fa00004f78001e04e00003003200ab
:10134800f0c3b3001047980002003700e0c3b300b1
:10135800104798009e4090003000200075ff07005d
:101368000080fa00000006000200fa00004f780032
:101378001e04e00002003200e3a2a80001003700ca
:10138800e3a2a9000080fa00000006000000fa00ad
:10139800d662a900e3a2a9005119800000f02f002d
:1013a80000807000501988009116800070f02f009e
:1013b8000080600090168800f1168000f0ff2d0074
:1013c80000806000f01688000040eb00bcff0700ba
:1013d80010c0b300d6ff070010c0b300e2ff07003b
:1013e8000080fa00000006000600fa0010079800c6
:1013f800414798001e009000b1c3b3007fff07006b
:1014080000c0eb0094ff07000040eb0092ff0700cc
:101418000000eb00000f7800030037004e409000fa
:101428008dff07001e0fe800500020009e0f1000df
:10143800faff36000040eb0087ff070000c0eb0012
:1014480085ff07000080fa00000006000200fa008d
:101458000040eb0000eeb700ccff07000000eb00f7
:10146800000f780007003700f1c0b3001e007800b5
:10147800ddff07001e00e80001cfb300daff070018
:101488001e8fe800700020009e0f1000f6ff360047
:101498000080fa00000006000200fa00e7c2bf0060
:1014a800624060000004e000030032000000eb002e
:1014b800000f780027003700313a800000e02f0045
:1014c80000806000d103200001007000303a8800dd
:1014d800417420009140780000ceb30000c0600045
:1014e8000004a00044e7b70044c7bf00f043b200bf
:1014f80044e7b700517420009140780080cfb300d2
:1015080000c060000024a00045e7b7004567a900b7
:101518005174200091407800f0c8b30000c060000a
:1015280045e7b70045e7a90040a7a90042c7bf00a3
:101538000042b2000004e000fcff3200e402a9000f
:10154800e422a900e802a800c0ff0700100020005c
:10155800000f78001e0078000080fa0000000600e6
:101568000000fa00e822aa0000cebf0000c0e9008f
:1015780000eeb70000cebf002bff07000080fa0086
:10158800000006000400fa0010118000000f780027
:101598001e0078000000d100610060000004e00037
:1015a800040032002222a9008000eb0011079800f5
:1015b800110037001e0078004200de006100600064
:1015c8000004e000030032000000eb001007980060
:1015d800090037009e007800618060000004e00088
:1015e80003003200100020001007980002003700a6
:1015f8008000eb00110798001e0090000080fa00a0
:10160800000006000000fa00deff07000004e0000a
:10161800fdff3200301180000080fb000080fa00de
:10162800000006000200fa00004f780023c2bf0045
:10163800614060000004e000fcff32001e80fb00f7
:10164800201188000080fa00000006000000fa005f
:101658004001200040118800000028000011880087
:1016680000402000101188000080fa0000000600e9
:101678000000fa0085c0bf000080fb006100600028
:101688000080fa00000006000600fa0040479800b3
:101698008500a9009500a9004e409000e14f400048
:1016a800160032001061a8004e4090000083fb0035
:1016b8000700200000002a000032b800e0242000c3
:1016c80000b0b900050178000001410000002a00bf
:1016d80000b8b9000001410082027800048fbe0002
:1016e8001e00be004008de000100200070088800cf
:1016f8001e0078006008880011e1a8000080fa0048
:0417080000000600d7
:020000040000fa
:10170c00000800000006000000000000000e0000b1
:10171c000200000000000000020e000002000000a9
:08172c000000000000000000b5
:020000040000fa
:041734000000fe00b3
:00000001FF
